{
  "_format": "hh-sol-artifact-1",
  "contractName": "LuniansCollection",
  "sourceName": "contracts/LuniansCollection.sol",
  "abi": [
    {
      "inputs": [
        {
          "internalType": "string",
          "name": "_name",
          "type": "string"
        },
        {
          "internalType": "string",
          "name": "_symbol",
          "type": "string"
        },
        {
          "internalType": "string",
          "name": "_lunianURI",
          "type": "string"
        },
        {
          "internalType": "string",
          "name": "_seedpodURI",
          "type": "string"
        },
        {
          "internalType": "string",
          "name": "_contractURI",
          "type": "string"
        },
        {
          "internalType": "address",
          "name": "_vrfCoordinator",
          "type": "address"
        },
        {
          "internalType": "address",
          "name": "_link",
          "type": "address"
        },
        {
          "internalType": "bytes32",
          "name": "_keyHash",
          "type": "bytes32"
        },
        {
          "internalType": "uint256",
          "name": "_fee",
          "type": "uint256"
        }
      ],
      "stateMutability": "nonpayable",
      "type": "constructor"
    },
    {
      "anonymous": false,
      "inputs": [
        {
          "indexed": true,
          "internalType": "address",
          "name": "account",
          "type": "address"
        },
        {
          "indexed": true,
          "internalType": "address",
          "name": "operator",
          "type": "address"
        },
        {
          "indexed": false,
          "internalType": "bool",
          "name": "approved",
          "type": "bool"
        }
      ],
      "name": "ApprovalForAll",
      "type": "event"
    },
    {
      "anonymous": false,
      "inputs": [
        {
          "indexed": true,
          "internalType": "bytes32",
          "name": "requestId",
          "type": "bytes32"
        },
        {
          "indexed": true,
          "internalType": "uint256",
          "name": "result",
          "type": "uint256"
        }
      ],
      "name": "DiceLanded",
      "type": "event"
    },
    {
      "anonymous": false,
      "inputs": [
        {
          "indexed": true,
          "internalType": "bytes32",
          "name": "requestId",
          "type": "bytes32"
        },
        {
          "indexed": true,
          "internalType": "address",
          "name": "roller",
          "type": "address"
        }
      ],
      "name": "DiceRolled",
      "type": "event"
    },
    {
      "anonymous": false,
      "inputs": [
        {
          "indexed": true,
          "internalType": "address",
          "name": "lunianOwner",
          "type": "address"
        },
        {
          "indexed": true,
          "internalType": "uint256",
          "name": "lunianIds",
          "type": "uint256"
        }
      ],
      "name": "LunianMinted",
      "type": "event"
    },
    {
      "anonymous": false,
      "inputs": [
        {
          "indexed": true,
          "internalType": "address",
          "name": "previousOwner",
          "type": "address"
        },
        {
          "indexed": true,
          "internalType": "address",
          "name": "newOwner",
          "type": "address"
        }
      ],
      "name": "OwnershipTransferred",
      "type": "event"
    },
    {
      "anonymous": false,
      "inputs": [
        {
          "indexed": false,
          "internalType": "address",
          "name": "_value",
          "type": "address"
        }
      ],
      "name": "PermanentAuthorizedContract",
      "type": "event"
    },
    {
      "anonymous": false,
      "inputs": [
        {
          "indexed": false,
          "internalType": "string",
          "name": "_value",
          "type": "string"
        },
        {
          "indexed": true,
          "internalType": "uint256",
          "name": "_id",
          "type": "uint256"
        }
      ],
      "name": "PermanentURI",
      "type": "event"
    },
    {
      "anonymous": false,
      "inputs": [
        {
          "indexed": true,
          "internalType": "address",
          "name": "operator",
          "type": "address"
        },
        {
          "indexed": true,
          "internalType": "address",
          "name": "from",
          "type": "address"
        },
        {
          "indexed": true,
          "internalType": "address",
          "name": "to",
          "type": "address"
        },
        {
          "indexed": false,
          "internalType": "uint256[]",
          "name": "ids",
          "type": "uint256[]"
        },
        {
          "indexed": false,
          "internalType": "uint256[]",
          "name": "values",
          "type": "uint256[]"
        }
      ],
      "name": "TransferBatch",
      "type": "event"
    },
    {
      "anonymous": false,
      "inputs": [
        {
          "indexed": true,
          "internalType": "address",
          "name": "operator",
          "type": "address"
        },
        {
          "indexed": true,
          "internalType": "address",
          "name": "from",
          "type": "address"
        },
        {
          "indexed": true,
          "internalType": "address",
          "name": "to",
          "type": "address"
        },
        {
          "indexed": false,
          "internalType": "uint256",
          "name": "id",
          "type": "uint256"
        },
        {
          "indexed": false,
          "internalType": "uint256",
          "name": "value",
          "type": "uint256"
        }
      ],
      "name": "TransferSingle",
      "type": "event"
    },
    {
      "anonymous": false,
      "inputs": [
        {
          "indexed": false,
          "internalType": "string",
          "name": "value",
          "type": "string"
        },
        {
          "indexed": true,
          "internalType": "uint256",
          "name": "id",
          "type": "uint256"
        }
      ],
      "name": "URI",
      "type": "event"
    },
    {
      "inputs": [],
      "name": "authorized",
      "outputs": [
        {
          "internalType": "address",
          "name": "",
          "type": "address"
        }
      ],
      "stateMutability": "view",
      "type": "function"
    },
    {
      "inputs": [
        {
          "internalType": "uint256",
          "name": "",
          "type": "uint256"
        }
      ],
      "name": "availableLunianIds",
      "outputs": [
        {
          "internalType": "uint256",
          "name": "",
          "type": "uint256"
        }
      ],
      "stateMutability": "view",
      "type": "function"
    },
    {
      "inputs": [
        {
          "internalType": "address",
          "name": "account",
          "type": "address"
        },
        {
          "internalType": "uint256",
          "name": "id",
          "type": "uint256"
        }
      ],
      "name": "balanceOf",
      "outputs": [
        {
          "internalType": "uint256",
          "name": "",
          "type": "uint256"
        }
      ],
      "stateMutability": "view",
      "type": "function"
    },
    {
      "inputs": [
        {
          "internalType": "address[]",
          "name": "accounts",
          "type": "address[]"
        },
        {
          "internalType": "uint256[]",
          "name": "ids",
          "type": "uint256[]"
        }
      ],
      "name": "balanceOfBatch",
      "outputs": [
        {
          "internalType": "uint256[]",
          "name": "",
          "type": "uint256[]"
        }
      ],
      "stateMutability": "view",
      "type": "function"
    },
    {
      "inputs": [
        {
          "internalType": "address",
          "name": "_address",
          "type": "address"
        },
        {
          "internalType": "uint256",
          "name": "_id",
          "type": "uint256"
        },
        {
          "internalType": "uint256",
          "name": "_ammount",
          "type": "uint256"
        }
      ],
      "name": "burn",
      "outputs": [],
      "stateMutability": "nonpayable",
      "type": "function"
    },
    {
      "inputs": [],
      "name": "contractURI",
      "outputs": [
        {
          "internalType": "string",
          "name": "",
          "type": "string"
        }
      ],
      "stateMutability": "view",
      "type": "function"
    },
    {
      "inputs": [],
      "name": "freezeAuthorizedContract",
      "outputs": [],
      "stateMutability": "nonpayable",
      "type": "function"
    },
    {
      "inputs": [],
      "name": "freezeMetadata",
      "outputs": [],
      "stateMutability": "nonpayable",
      "type": "function"
    },
    {
      "inputs": [],
      "name": "frozenAuthorized",
      "outputs": [
        {
          "internalType": "bool",
          "name": "",
          "type": "bool"
        }
      ],
      "stateMutability": "view",
      "type": "function"
    },
    {
      "inputs": [],
      "name": "frozenMetadata",
      "outputs": [
        {
          "internalType": "bool",
          "name": "",
          "type": "bool"
        }
      ],
      "stateMutability": "view",
      "type": "function"
    },
    {
      "inputs": [
        {
          "internalType": "address",
          "name": "_address",
          "type": "address"
        }
      ],
      "name": "getRollState",
      "outputs": [
        {
          "internalType": "uint256",
          "name": "",
          "type": "uint256"
        }
      ],
      "stateMutability": "view",
      "type": "function"
    },
    {
      "inputs": [
        {
          "internalType": "string",
          "name": "_uri",
          "type": "string"
        }
      ],
      "name": "initSingularLunians",
      "outputs": [],
      "stateMutability": "nonpayable",
      "type": "function"
    },
    {
      "inputs": [
        {
          "internalType": "address",
          "name": "account",
          "type": "address"
        },
        {
          "internalType": "address",
          "name": "operator",
          "type": "address"
        }
      ],
      "name": "isApprovedForAll",
      "outputs": [
        {
          "internalType": "bool",
          "name": "",
          "type": "bool"
        }
      ],
      "stateMutability": "view",
      "type": "function"
    },
    {
      "inputs": [
        {
          "internalType": "uint256",
          "name": "_tokenId",
          "type": "uint256"
        }
      ],
      "name": "isLunian",
      "outputs": [
        {
          "internalType": "bool",
          "name": "",
          "type": "bool"
        }
      ],
      "stateMutability": "pure",
      "type": "function"
    },
    {
      "inputs": [],
      "name": "linkBalance",
      "outputs": [
        {
          "internalType": "uint256",
          "name": "",
          "type": "uint256"
        }
      ],
      "stateMutability": "view",
      "type": "function"
    },
    {
      "inputs": [],
      "name": "maxLunians",
      "outputs": [
        {
          "internalType": "uint256",
          "name": "",
          "type": "uint256"
        }
      ],
      "stateMutability": "view",
      "type": "function"
    },
    {
      "inputs": [],
      "name": "maxSingularLunians",
      "outputs": [
        {
          "internalType": "uint8",
          "name": "",
          "type": "uint8"
        }
      ],
      "stateMutability": "view",
      "type": "function"
    },
    {
      "inputs": [
        {
          "internalType": "address",
          "name": "_address",
          "type": "address"
        },
        {
          "internalType": "uint256",
          "name": "_id",
          "type": "uint256"
        },
        {
          "internalType": "uint256",
          "name": "_ammount",
          "type": "uint256"
        },
        {
          "internalType": "bytes",
          "name": "_data",
          "type": "bytes"
        }
      ],
      "name": "mint",
      "outputs": [],
      "stateMutability": "nonpayable",
      "type": "function"
    },
    {
      "inputs": [
        {
          "internalType": "uint256",
          "name": "_seedpodId",
          "type": "uint256"
        },
        {
          "internalType": "uint256",
          "name": "_amount",
          "type": "uint256"
        }
      ],
      "name": "mintLunian",
      "outputs": [],
      "stateMutability": "nonpayable",
      "type": "function"
    },
    {
      "inputs": [
        {
          "internalType": "uint256",
          "name": "_amount",
          "type": "uint256"
        }
      ],
      "name": "mintSeedpod",
      "outputs": [],
      "stateMutability": "nonpayable",
      "type": "function"
    },
    {
      "inputs": [],
      "name": "mintedLunians",
      "outputs": [
        {
          "internalType": "uint256",
          "name": "",
          "type": "uint256"
        }
      ],
      "stateMutability": "view",
      "type": "function"
    },
    {
      "inputs": [],
      "name": "name",
      "outputs": [
        {
          "internalType": "string",
          "name": "",
          "type": "string"
        }
      ],
      "stateMutability": "view",
      "type": "function"
    },
    {
      "inputs": [],
      "name": "owner",
      "outputs": [
        {
          "internalType": "address",
          "name": "",
          "type": "address"
        }
      ],
      "stateMutability": "view",
      "type": "function"
    },
    {
      "inputs": [
        {
          "internalType": "bool",
          "name": "_state",
          "type": "bool"
        }
      ],
      "name": "pause",
      "outputs": [],
      "stateMutability": "nonpayable",
      "type": "function"
    },
    {
      "inputs": [
        {
          "internalType": "bytes32",
          "name": "requestId",
          "type": "bytes32"
        },
        {
          "internalType": "uint256",
          "name": "randomness",
          "type": "uint256"
        }
      ],
      "name": "rawFulfillRandomness",
      "outputs": [],
      "stateMutability": "nonpayable",
      "type": "function"
    },
    {
      "inputs": [],
      "name": "renounceOwnership",
      "outputs": [],
      "stateMutability": "nonpayable",
      "type": "function"
    },
    {
      "inputs": [
        {
          "internalType": "address",
          "name": "_address",
          "type": "address"
        }
      ],
      "name": "resetRollState",
      "outputs": [],
      "stateMutability": "nonpayable",
      "type": "function"
    },
    {
      "inputs": [
        {
          "internalType": "uint256",
          "name": "_tokenId",
          "type": "uint256"
        },
        {
          "internalType": "uint256",
          "name": "_salePrice",
          "type": "uint256"
        }
      ],
      "name": "royaltyInfo",
      "outputs": [
        {
          "internalType": "address",
          "name": "",
          "type": "address"
        },
        {
          "internalType": "uint256",
          "name": "",
          "type": "uint256"
        }
      ],
      "stateMutability": "view",
      "type": "function"
    },
    {
      "inputs": [
        {
          "internalType": "address",
          "name": "from",
          "type": "address"
        },
        {
          "internalType": "address",
          "name": "to",
          "type": "address"
        },
        {
          "internalType": "uint256[]",
          "name": "ids",
          "type": "uint256[]"
        },
        {
          "internalType": "uint256[]",
          "name": "amounts",
          "type": "uint256[]"
        },
        {
          "internalType": "bytes",
          "name": "data",
          "type": "bytes"
        }
      ],
      "name": "safeBatchTransferFrom",
      "outputs": [],
      "stateMutability": "nonpayable",
      "type": "function"
    },
    {
      "inputs": [
        {
          "internalType": "address",
          "name": "from",
          "type": "address"
        },
        {
          "internalType": "address",
          "name": "to",
          "type": "address"
        },
        {
          "internalType": "uint256",
          "name": "id",
          "type": "uint256"
        },
        {
          "internalType": "uint256",
          "name": "amount",
          "type": "uint256"
        },
        {
          "internalType": "bytes",
          "name": "data",
          "type": "bytes"
        }
      ],
      "name": "safeTransferFrom",
      "outputs": [],
      "stateMutability": "nonpayable",
      "type": "function"
    },
    {
      "inputs": [
        {
          "internalType": "address",
          "name": "operator",
          "type": "address"
        },
        {
          "internalType": "bool",
          "name": "approved",
          "type": "bool"
        }
      ],
      "name": "setApprovalForAll",
      "outputs": [],
      "stateMutability": "nonpayable",
      "type": "function"
    },
    {
      "inputs": [
        {
          "internalType": "address",
          "name": "_authorized",
          "type": "address"
        }
      ],
      "name": "setAuthorized",
      "outputs": [],
      "stateMutability": "nonpayable",
      "type": "function"
    },
    {
      "inputs": [
        {
          "internalType": "uint256",
          "name": "_fee",
          "type": "uint256"
        }
      ],
      "name": "setFee",
      "outputs": [],
      "stateMutability": "nonpayable",
      "type": "function"
    },
    {
      "inputs": [
        {
          "internalType": "bytes32",
          "name": "_keyHash",
          "type": "bytes32"
        }
      ],
      "name": "setKeyHash",
      "outputs": [],
      "stateMutability": "nonpayable",
      "type": "function"
    },
    {
      "inputs": [
        {
          "internalType": "string",
          "name": "_newuri",
          "type": "string"
        }
      ],
      "name": "setURILunian",
      "outputs": [],
      "stateMutability": "nonpayable",
      "type": "function"
    },
    {
      "inputs": [
        {
          "internalType": "string",
          "name": "_newuri",
          "type": "string"
        }
      ],
      "name": "setURISeedpod",
      "outputs": [],
      "stateMutability": "nonpayable",
      "type": "function"
    },
    {
      "inputs": [
        {
          "internalType": "uint256",
          "name": "id",
          "type": "uint256"
        },
        {
          "internalType": "string",
          "name": "_newuri",
          "type": "string"
        }
      ],
      "name": "setURISingularLunian",
      "outputs": [],
      "stateMutability": "nonpayable",
      "type": "function"
    },
    {
      "inputs": [
        {
          "internalType": "bytes4",
          "name": "interfaceId",
          "type": "bytes4"
        }
      ],
      "name": "supportsInterface",
      "outputs": [
        {
          "internalType": "bool",
          "name": "",
          "type": "bool"
        }
      ],
      "stateMutability": "view",
      "type": "function"
    },
    {
      "inputs": [],
      "name": "symbol",
      "outputs": [
        {
          "internalType": "string",
          "name": "",
          "type": "string"
        }
      ],
      "stateMutability": "view",
      "type": "function"
    },
    {
      "inputs": [
        {
          "internalType": "address",
          "name": "newOwner",
          "type": "address"
        }
      ],
      "name": "transferOwnership",
      "outputs": [],
      "stateMutability": "nonpayable",
      "type": "function"
    },
    {
      "inputs": [
        {
          "internalType": "uint256",
          "name": "_tokenId",
          "type": "uint256"
        }
      ],
      "name": "uri",
      "outputs": [
        {
          "internalType": "string",
          "name": "",
          "type": "string"
        }
      ],
      "stateMutability": "view",
      "type": "function"
    }
  ],
  "bytecode": "0x60c06040526009805460ff191690556000600b819055600c5560326043556049805460ff60ff60a81b01191690553480156200003a57600080fd5b5060405162003cf138038062003cf18339810160408190526200005d9162000474565b8383886200006b816200018a565b506200007733620001a3565b6001600160601b0319606092831b811660a052911b166080528851620000a59060079060208c0190620002fa565b508751620000bb9060089060208b0190620002fa565b508651620000d190600e9060208a0190620002fa565b508551620000e790600d906020890190620002fa565b508451620000fd90600a906020880190620002fa565b5060418290556042819055620001336200011f6003546001600160a01b031690565b6103e8620001f560201b620017571760201c565b60005b60648110156200017a5760446200014f8260016200058e565b81546001810183556000928352602090922090910155806200017181620005e6565b91505062000136565b5050505050505050505062000630565b80516200019f906002906020840190620002fa565b5050565b600380546001600160a01b038381166001600160a01b0319831681179093556040519116919082907f8be0079c531659141344cd1fd0a4f28419497f9722a3daafe3b4186f6b6457e090600090a35050565b6127106001600160601b0382161115620002695760405162461bcd60e51b815260206004820152602a60248201527f455243323938313a20726f79616c7479206665652077696c6c206578636565646044820152692073616c65507269636560b01b60648201526084015b60405180910390fd5b6001600160a01b038216620002c15760405162461bcd60e51b815260206004820152601960248201527f455243323938313a20696e76616c696420726563656976657200000000000000604482015260640162000260565b604080518082019091526001600160a01b039092168083526001600160601b039091166020909201829052600160a01b90910217600455565b8280546200030890620005a9565b90600052602060002090601f0160209004810192826200032c576000855562000377565b82601f106200034757805160ff191683800117855562000377565b8280016001018555821562000377579182015b82811115620003775782518255916020019190600101906200035a565b506200038592915062000389565b5090565b5b808211156200038557600081556001016200038a565b80516001600160a01b0381168114620003b857600080fd5b919050565b600082601f830112620003cf57600080fd5b81516001600160401b0380821115620003ec57620003ec6200061a565b604051601f8301601f19908116603f011681019082821181831017156200041757620004176200061a565b816040528381526020925086838588010111156200043457600080fd5b600091505b8382101562000458578582018301518183018401529082019062000439565b838211156200046a5760008385830101525b9695505050505050565b60008060008060008060008060006101208a8c0312156200049457600080fd5b89516001600160401b0380821115620004ac57600080fd5b620004ba8d838e01620003bd565b9a5060208c0151915080821115620004d157600080fd5b620004df8d838e01620003bd565b995060408c0151915080821115620004f657600080fd5b620005048d838e01620003bd565b985060608c01519150808211156200051b57600080fd5b620005298d838e01620003bd565b975060808c01519150808211156200054057600080fd5b506200054f8c828d01620003bd565b9550506200056060a08b01620003a0565b93506200057060c08b01620003a0565b925060e08a015191506101008a015190509295985092959850929598565b60008219821115620005a457620005a462000604565b500190565b600181811c90821680620005be57607f821691505b60208210811415620005e057634e487b7160e01b600052602260045260246000fd5b50919050565b6000600019821415620005fd57620005fd62000604565b5060010190565b634e487b7160e01b600052601160045260246000fd5b634e487b7160e01b600052604160045260246000fd5b60805160601c60a05160601c6136876200066a600039600081816111a201526123f70152600081816112ab01526123c801526136876000f3fe608060405234801561001057600080fd5b50600436106102525760003560e01c8063731133e911610146578063a1da8a9f116100c3578063e8a3d48511610087578063e8a3d48514610514578063e985e9c51461051c578063f04f408914610558578063f242432a1461056b578063f2fde38b1461057e578063f5298aca1461059157600080fd5b8063a1da8a9f146104cb578063a22cb465146104de578063c26ecefa146104f1578063d111515d146104f9578063e5d896371461050157600080fd5b80638ffb33ff1161010a5780638ffb33ff1461048257806394985ddd1461048a57806395d89b411461049d57806397fbb208146104a557806398544710146104b857600080fd5b8063731133e91461042357806378f0d427146104365780638529ccad14610450578063899b476b1461045d5780638da5cb5b1461047157600080fd5b806335bd37e3116101d45780634e1273f4116101985780634e1273f4146103c25780634fba46c8146103e2578063565867e5146103f557806369fe0e2d14610408578063715018a61461041b57600080fd5b806335bd37e31461035157806336724653146103645780633b70585814610377578063456cb7c61461037f5780634bc9ba78146103af57600080fd5b80630e89341c1161021b5780630e89341c146102d357806314fc2812146102e657806320dd631a146102f95780632a55205a1461030c5780632eb2c2d61461033e57600080fd5b8062fdd58e1461025757806301ffc9a71461027d57806302329a29146102a057806306fdde03146102b55780630e1fb0d0146102ca575b600080fd5b61026a610265366004612ce9565b6105a4565b6040519081526020015b60405180910390f35b61029061028b366004612eeb565b61063b565b6040519015158152602001610274565b6102b36102ae366004612e76565b61064c565b005b6102bd610689565b604051610274919061325d565b61026a600b5481565b6102bd6102e1366004612eb0565b610717565b6102b36102f4366004612b50565b6107c9565b6102b3610307366004612f72565b61081b565b61031f61031a366004612ec9565b610895565b604080516001600160a01b039093168352602083019190915201610274565b6102b361034c366004612ba5565b610941565b6102b361035f366004612f25565b6109d8565b6102b3610372366004612ec9565b610a3c565b61026a606481565b6049546103979061010090046001600160a01b031681565b6040516001600160a01b039091168152602001610274565b6102b36103bd366004612eb0565b610c87565b6103d56103d0366004612da6565b610e2d565b6040516102749190613225565b61026a6103f0366004612b50565b610f56565b6102b3610403366004612b50565b610f9f565b6102b3610416366004612eb0565b610fe3565b6102b3611012565b6102b3610431366004612d46565b611048565b61043e600c81565b60405160ff9091168152602001610274565b6049546102909060ff1681565b60495461029090600160a81b900460ff1681565b6003546001600160a01b0316610397565b6102b3611114565b6102b3610498366004612ec9565b611197565b6102bd611219565b61026a6104b3366004612eb0565b611226565b6102b36104c6366004612eb0565b611247565b6102906104d9366004612eb0565b611276565b6102b36104ec366004612cb2565b611288565b61026a611293565b6102b3611332565b6102b361050f366004612f25565b6114fc565b6102bd61155c565b61029061052a366004612b72565b6001600160a01b03918216600090815260016020908152604080832093909416825291909152205460ff1690565b6102b3610566366004612f25565b611569565b6102b3610579366004612c4e565b6115da565b6102b361058c366004612b50565b611661565b6102b361059f366004612d13565b6116fc565b60006001600160a01b0383166106155760405162461bcd60e51b815260206004820152602b60248201527f455243313135353a2062616c616e636520717565727920666f7220746865207a60448201526a65726f206164647265737360a81b60648201526084015b60405180910390fd5b506000908152602081815260408083206001600160a01b03949094168352929052205490565b600061064682611854565b92915050565b6003546001600160a01b031633146106765760405162461bcd60e51b815260040161060c90613347565b6009805460ff1916911515919091179055565b6007805461069690613464565b80601f01602080910402602001604051908101604052809291908181526020018280546106c290613464565b801561070f5780601f106106e45761010080835404028352916020019161070f565b820191906000526020600020905b8154815290600101906020018083116106f257829003601f168201915b505050505081565b60606064821161075357600e61072c83611879565b60405160200161073d9291906130af565b6040516020818303038152906040529050919050565b61075f606460016133d6565b82141561077857600d60405160200161073d91906130e4565b610784606460026133d6565b82141561079d57600d60405160200161073d919061311b565b600f6107aa600184613421565b603281106107ba576107ba61353c565b0161072c83611879565b919050565b6003546001600160a01b031633146107f35760405162461bcd60e51b815260040161060c90613347565b604980546001600160a01b0390921661010002610100600160a81b0319909216919091179055565b6003546001600160a01b031633146108455760405162461bcd60e51b815260040161060c90613347565b60495460ff16156108685760405162461bcd60e51b815260040161060c9061337c565b80600f836032811061087c5761087c61353c565b0190805190602001906108909291906129b6565b505050565b60008281526005602090815260408083208151808301909252546001600160a01b038116808352600160a01b9091046001600160601b031692820192909252829161090a5750604080518082019091526004546001600160a01b0381168252600160a01b90046001600160601b031660208201525b602081015160009061271090610929906001600160601b031687613402565b61093391906133ee565b915196919550909350505050565b6001600160a01b03851633148061095d575061095d853361052a565b6109c45760405162461bcd60e51b815260206004820152603260248201527f455243313135353a207472616e736665722063616c6c6572206973206e6f74206044820152711bdddb995c881b9bdc88185c1c1c9bdd995960721b606482015260840161060c565b6109d1858585858561197e565b5050505050565b6003546001600160a01b03163314610a025760405162461bcd60e51b815260040161060c90613347565b60495460ff1615610a255760405162461bcd60e51b815260040161060c9061337c565b8051610a3890600e9060208401906129b6565b5050565b6064600c5414610ab45760405162461bcd60e51b815260206004820152603b60248201527f43616e206e6f74206d696e742061206c756e69616e206265666f726520616c6c60448201527f2073656564706f64732068617665206265656e206d696e746564210000000000606482015260840161060c565b60095460ff1615610afb5760405162461bcd60e51b8152602060048201526011602482015270135a5b9d1a5b99c81a5cc81c185d5cd959607a1b604482015260640161060c565b60008111610b4b5760405162461bcd60e51b815260206004820152601860248201527f43616e206e6f74206d696e74207a65726f204c756e69616e0000000000000000604482015260640161060c565b606481600b54610b5b91906133d6565b1115610ba95760405162461bcd60e51b815260206004820152601f60248201527f4e6f7420656e6f756768204c756e69616e73206c65667420746f206d696e7400604482015260640161060c565b80610bb433846105a4565b1015610c025760405162461bcd60e51b815260206004820181905260248201527f4e6f7420656e6f756768204c756e69616e73206f776e656420746f206d696e74604482015260640161060c565b610c0e60646005613402565b336000908152604660205260409020541415610c5f5760405162461bcd60e51b815260206004820152601060248201526f526f6c6c20696e2070726f677265737360801b604482015260640161060c565b610c6833611b5b565b5033600090815260476020908152604080832093909355604890522055565b6003546001600160a01b03163314610cb15760405162461bcd60e51b815260040161060c90613347565b6064600c5410610d165760405162461bcd60e51b815260206004820152602a60248201527f43616e206e6f74206d696e74206d6f72652073656564706f647320286c696d696044820152697420726561636865642960b01b606482015260840161060c565b606481600c54610d2691906133d6565b1115610d745760405162461bcd60e51b815260206004820152601d60248201527f43616e206e6f74206d696e7420736f206d616e792073656564706f6473000000604482015260640161060c565b603281600c54610d8491906133d6565b11610db457610daf33610d99606460016133d6565b8360405180602001604052806000815250611c9c565b610e13565b6000600c546032610dc59190613421565b90506032600c541015610de257610de233610d99606460016133d6565b610e1133610df2606460026133d6565b610dfc8486613421565b60405180602001604052806000815250611c9c565b505b80600c6000828254610e2591906133d6565b909155505050565b60608151835114610e925760405162461bcd60e51b815260206004820152602960248201527f455243313135353a206163636f756e747320616e6420696473206c656e677468604482015268040dad2e6dac2e8c6d60bb1b606482015260840161060c565b600083516001600160401b03811115610ead57610ead613552565b604051908082528060200260200182016040528015610ed6578160200160208202803683370190505b50905060005b8451811015610f4e57610f21858281518110610efa57610efa61353c565b6020026020010151858381518110610f1457610f1461353c565b60200260200101516105a4565b828281518110610f3357610f3361353c565b6020908102919091010152610f47816134cb565b9050610edc565b509392505050565b6003546000906001600160a01b03163314610f835760405162461bcd60e51b815260040161060c90613347565b506001600160a01b031660009081526046602052604090205490565b6003546001600160a01b03163314610fc95760405162461bcd60e51b815260040161060c90613347565b6001600160a01b0316600090815260466020526040812055565b6003546001600160a01b0316331461100d5760405162461bcd60e51b815260040161060c90613347565b604255565b6003546001600160a01b0316331461103c5760405162461bcd60e51b815260040161060c90613347565b6110466000611da6565b565b60495461010090046001600160a01b031633146110985760405162461bcd60e51b815260206004820152600e60248201526d139bdd08185d5d1a1bdc9a5e995960921b604482015260640161060c565b6110a4606460026133d6565b83116111025760405162461bcd60e51b815260206004820152602760248201527f43616e2774206d696e7420726567756c6172204c756e69616e73206e6f722073604482015266656564706f647360c81b606482015260840161060c565b61110e84848484611c9c565b50505050565b6003546001600160a01b0316331461113e5760405162461bcd60e51b815260040161060c90613347565b6049546040516101009091046001600160a01b031681527fae5e5383d97e81127593ec874d3b67711a5569f4dc983d69cf6d12f83d7dc7099060200160405180910390a16049805460ff60a81b1916600160a81b179055565b336001600160a01b037f0000000000000000000000000000000000000000000000000000000000000000161461120f5760405162461bcd60e51b815260206004820152601f60248201527f4f6e6c7920565246436f6f7264696e61746f722063616e2066756c66696c6c00604482015260640161060c565b610a388282611df8565b6008805461069690613464565b6044818154811061123657600080fd5b600091825260209091200154905081565b6003546001600160a01b031633146112715760405162461bcd60e51b815260040161060c90613347565b604155565b600061128182611e5f565b1592915050565b610a38338383611e91565b6040516370a0823160e01b81523060048201526000907f00000000000000000000000000000000000000000000000000000000000000006001600160a01b0316906370a082319060240160206040518083038186803b1580156112f557600080fd5b505afa158015611309573d6000803e3d6000fd5b505050506040513d601f19601f8201168201806040525081019061132d9190612f59565b905090565b6003546001600160a01b0316331461135c5760405162461bcd60e51b815260040161060c90613347565b60005b61136b600c60646133d6565b6113769060026133d6565b8110156114ec57606481116113ec576113908160016133d6565b600080516020613632833981519152600e6113b46113af8560016133d6565b611879565b6040516020016113c59291906130af565b60408051601f19818403018152908290526113df9161325d565b60405180910390a26114da565b6113f8606460016133d6565b81141561142b5761140a8160016133d6565b600080516020613632833981519152600d6040516020016113c591906130e4565b611437606460026133d6565b81141561146a576114498160016133d6565b600080516020613632833981519152600d6040516020016113c5919061311b565b6114758160016133d6565b600080516020613632833981519152600f83603281106114975761149761353c565b016114a66113af8560016133d6565b6040516020016114b79291906130af565b60408051601f19818403018152908290526114d19161325d565b60405180910390a25b806114e4816134cb565b91505061135f565b506049805460ff19166001179055565b6003546001600160a01b031633146115265760405162461bcd60e51b815260040161060c90613347565b60495460ff16156115495760405162461bcd60e51b815260040161060c9061337c565b8051610a3890600d9060208401906129b6565b600a805461069690613464565b6003546001600160a01b031633146115935760405162461bcd60e51b815260040161060c90613347565b60005b600c811015610a385781600f82603281106115b3576115b361353c565b0190805190602001906115c79291906129b6565b50806115d2816134cb565b915050611596565b6001600160a01b0385163314806115f657506115f6853361052a565b6116545760405162461bcd60e51b815260206004820152602960248201527f455243313135353a2063616c6c6572206973206e6f74206f776e6572206e6f7260448201526808185c1c1c9bdd995960ba1b606482015260840161060c565b6109d18585858585611f72565b6003546001600160a01b0316331461168b5760405162461bcd60e51b815260040161060c90613347565b6001600160a01b0381166116f05760405162461bcd60e51b815260206004820152602660248201527f4f776e61626c653a206e6577206f776e657220697320746865207a65726f206160448201526564647265737360d01b606482015260840161060c565b6116f981611da6565b50565b60495461010090046001600160a01b0316331461174c5760405162461bcd60e51b815260206004820152600e60248201526d139bdd08185d5d1a1bdc9a5e995960921b604482015260640161060c565b61089083838361208f565b6127106001600160601b03821611156117c55760405162461bcd60e51b815260206004820152602a60248201527f455243323938313a20726f79616c7479206665652077696c6c206578636565646044820152692073616c65507269636560b01b606482015260840161060c565b6001600160a01b03821661181b5760405162461bcd60e51b815260206004820152601960248201527f455243323938313a20696e76616c696420726563656976657200000000000000604482015260640161060c565b604080518082019091526001600160a01b039092168083526001600160601b039091166020909201829052600160a01b90910217600455565b60006001600160e01b0319821663152a902d60e11b1480610646575061064682612209565b60608161189d5750506040805180820190915260018152600360fc1b602082015290565b8160005b81156118c757806118b1816134cb565b91506118c09050600a836133ee565b91506118a1565b6000816001600160401b038111156118e1576118e1613552565b6040519080825280601f01601f19166020018201604052801561190b576020820181803683370190505b5090505b841561197657611920600183613421565b915061192d600a866134e6565b6119389060306133d6565b60f81b81838151811061194d5761194d61353c565b60200101906001600160f81b031916908160001a90535061196f600a866133ee565b945061190f565b949350505050565b81518351146119e05760405162461bcd60e51b815260206004820152602860248201527f455243313135353a2069647320616e6420616d6f756e7473206c656e677468206044820152670dad2e6dac2e8c6d60c31b606482015260840161060c565b6001600160a01b038416611a065760405162461bcd60e51b815260040161060c906132b8565b3360005b8451811015611aed576000858281518110611a2757611a2761353c565b602002602001015190506000858381518110611a4557611a4561353c565b602090810291909101810151600084815280835260408082206001600160a01b038e168352909352919091205490915081811015611a955760405162461bcd60e51b815260040161060c906132fd565b6000838152602081815260408083206001600160a01b038e8116855292528083208585039055908b16825281208054849290611ad29084906133d6565b9250508190555050505080611ae6906134cb565b9050611a0a565b50846001600160a01b0316866001600160a01b0316826001600160a01b03167f4a39dc06d4c0dbc64b70af90fd698a233a518aa5d07e595d983b8c0526c8f7fb8787604051611b3d929190613238565b60405180910390a4611b53818787878787612259565b505050505050565b6000604254611b68611293565b1015611bb65760405162461bcd60e51b815260206004820152601a60248201527f4e6f7420656e6f756768204c494e4b20746f2070617920666565000000000000604482015260640161060c565b6001600160a01b03821660009081526046602052604090205415611c0d5760405162461bcd60e51b815260206004820152600e60248201526d105b1c9958591e481c9bdb1b195960921b604482015260640161060c565b611c1b6041546042546123c4565b600081815260456020526040902080546001600160a01b0319166001600160a01b0385161790559050611c5060646005613402565b6001600160a01b038316600081815260466020526040808220939093559151909183917f923de4fc4aece24a78a9e4ca3009c571a742f81ac2c004a229224b0fd1883bdd9190a3919050565b6001600160a01b038416611cfc5760405162461bcd60e51b815260206004820152602160248201527f455243313135353a206d696e7420746f20746865207a65726f206164647265736044820152607360f81b606482015260840161060c565b33611d1681600087611d0d8861254f565b6109d18861254f565b6000848152602081815260408083206001600160a01b038916845290915281208054859290611d469084906133d6565b909155505060408051858152602081018590526001600160a01b0380881692600092918516917fc3d58168c5ae7397731d063d5bbf3d657854427343f4c083240f7aacaa2d0f62910160405180910390a46109d18160008787878761259a565b600380546001600160a01b038381166001600160a01b0319831681179093556040519116919082907f8be0079c531659141344cd1fd0a4f28419497f9722a3daafe3b4186f6b6457e090600090a35050565b604051819083907f909dd726737b7ffa4ae9d137e9edebe8a74a9c2910a4b60e8112f93ab217083790600090a36000828152604560209081526040808320546001600160a01b03168352604782528083205460489092529091205461110e84848484612664565b6000606482118015611e7c5750611e78606460026133d6565b8211155b15611e8957506001919050565b506000919050565b816001600160a01b0316836001600160a01b03161415611f055760405162461bcd60e51b815260206004820152602960248201527f455243313135353a2073657474696e6720617070726f76616c20737461747573604482015268103337b91039b2b63360b91b606482015260840161060c565b6001600160a01b03838116600081815260016020908152604080832094871680845294825291829020805460ff191686151590811790915591519182527f17307eab39ab6107e8899845ad3d59bd9653f200f220920489ca2b5937696c31910160405180910390a3505050565b6001600160a01b038416611f985760405162461bcd60e51b815260040161060c906132b8565b33611fa8818787611d0d8861254f565b6000848152602081815260408083206001600160a01b038a16845290915290205483811015611fe95760405162461bcd60e51b815260040161060c906132fd565b6000858152602081815260408083206001600160a01b038b81168552925280832087850390559088168252812080548692906120269084906133d6565b909155505060408051868152602081018690526001600160a01b03808916928a821692918616917fc3d58168c5ae7397731d063d5bbf3d657854427343f4c083240f7aacaa2d0f62910160405180910390a461208682888888888861259a565b50505050505050565b6001600160a01b0383166120f15760405162461bcd60e51b815260206004820152602360248201527f455243313135353a206275726e2066726f6d20746865207a65726f206164647260448201526265737360e81b606482015260840161060c565b33612121818560006121028761254f565b61210b8761254f565b5050604080516020810190915260009052505050565b6000838152602081815260408083206001600160a01b03881684529091529020548281101561219e5760405162461bcd60e51b8152602060048201526024808201527f455243313135353a206275726e20616d6f756e7420657863656564732062616c604482015263616e636560e01b606482015260840161060c565b6000848152602081815260408083206001600160a01b03898116808652918452828520888703905582518981529384018890529092908616917fc3d58168c5ae7397731d063d5bbf3d657854427343f4c083240f7aacaa2d0f62910160405180910390a45050505050565b60006001600160e01b03198216636cdb3d1360e11b148061223a57506001600160e01b031982166303a24d0760e21b145b8061064657506301ffc9a760e01b6001600160e01b0319831614610646565b6001600160a01b0384163b15611b535760405163bc197c8160e01b81526001600160a01b0385169063bc197c819061229d9089908990889088908890600401613152565b602060405180830381600087803b1580156122b757600080fd5b505af19250505080156122e7575060408051601f3d908101601f191682019092526122e491810190612f08565b60015b612394576122f3613568565b806308c379a0141561232d5750612308613584565b80612313575061232f565b8060405162461bcd60e51b815260040161060c919061325d565b505b60405162461bcd60e51b815260206004820152603460248201527f455243313135353a207472616e7366657220746f206e6f6e20455243313135356044820152732932b1b2b4bb32b91034b6b83632b6b2b73a32b960611b606482015260840161060c565b6001600160e01b0319811663bc197c8160e01b146120865760405162461bcd60e51b815260040161060c90613270565b60007f00000000000000000000000000000000000000000000000000000000000000006001600160a01b0316634000aea07f000000000000000000000000000000000000000000000000000000000000000084866000604051602001612434929190918252602082015260400190565b6040516020818303038152906040526040518463ffffffff1660e01b8152600401612461939291906131f5565b602060405180830381600087803b15801561247b57600080fd5b505af115801561248f573d6000803e3d6000fd5b505050506040513d601f19601f820116820180604052508101906124b39190612e93565b50600083815260066020818152604080842054815180840189905280830186905230606082015260808082018390528351808303909101815260a09091019092528151918301919091209387905291905261250f9060016133d6565b6000858152600660205260409020556119768482604080516020808201949094528082019290925280518083038201815260609092019052805191012090565b604080516001808252818301909252606091600091906020808301908036833701905050905082816000815181106125895761258961353c565b602090810291909101015292915050565b6001600160a01b0384163b15611b535760405163f23a6e6160e01b81526001600160a01b0385169063f23a6e61906125de90899089908890889088906004016131b0565b602060405180830381600087803b1580156125f857600080fd5b505af1925050508015612628575060408051601f3d908101601f1916820190925261262591810190612f08565b60015b612634576122f3613568565b6001600160e01b0319811663f23a6e6160e01b146120865760405162461bcd60e51b815260040161060c90613270565b6000806000846001600160401b0381111561268157612681613552565b6040519080825280602002602001820160405280156126aa578160200160208202803683370190505b50905060005b858110156128cc5760408051602081018990529081018290526060016040516020818303038152906040528051906020012060001c8282815181106126f7576126f761353c565b60200260200101818152505061270c856128fd565b15612758576043548282815181106127265761272661353c565b602002602001015161273891906134e6565b935060016043600082825461274d9190613421565b9091555061279a9050565b604354604454612769908290613421565b83838151811061277b5761277b61353c565b602002602001015161278d91906134e6565b61279791906133d6565b93505b600088815260456020818152604080842080546001600160a01b039081168652604684529185208990558c85529290915290546127d89116876105a4565b111561287757600088815260456020526040902054612802906001600160a01b031686600161208f565b604484815481106128155761281561353c565b60009182526020808320909101548a83526045825260408084205481519384019091529282529450612855916001600160a01b0316908590600190611c9c565b61285e8461291a565b6001600b600082825461287191906133d6565b90915550505b60008881526045602052604080822054905185926001600160a01b03909216917fc171ac14b29b6eb125a5e97011d9b8f38a3f9772b882a79fcdd024124026855391a3806128c4816134cb565b9150506126b0565b50505060009485525050604560209081526040808520546001600160a01b0316855260469091528320929092555050565b600061290b606460016133d6565b821415611e8957506001919050565b805b60445461292b90600190613421565b81101561298b57604461293f8260016133d6565b8154811061294f5761294f61353c565b90600052602060002001546044828154811061296d5761296d61353c565b60009182526020909120015580612983816134cb565b91505061291c565b50604480548061299d5761299d613526565b6001900381819060005260206000200160009055905550565b8280546129c290613464565b90600052602060002090601f0160209004810192826129e45760008555612a2a565b82601f106129fd57805160ff1916838001178555612a2a565b82800160010185558215612a2a579182015b82811115612a2a578251825591602001919060010190612a0f565b50612a36929150612a3a565b5090565b5b80821115612a365760008155600101612a3b565b80356001600160a01b03811681146107c457600080fd5b600082601f830112612a7757600080fd5b81356020612a84826133b3565b604051612a91828261349f565b8381528281019150858301600585901b87018401881015612ab157600080fd5b60005b85811015612ad057813584529284019290840190600101612ab4565b5090979650505050505050565b600082601f830112612aee57600080fd5b81356001600160401b03811115612b0757612b07613552565b604051612b1e601f8301601f19166020018261349f565b818152846020838601011115612b3357600080fd5b816020850160208301376000918101602001919091529392505050565b600060208284031215612b6257600080fd5b612b6b82612a4f565b9392505050565b60008060408385031215612b8557600080fd5b612b8e83612a4f565b9150612b9c60208401612a4f565b90509250929050565b600080600080600060a08688031215612bbd57600080fd5b612bc686612a4f565b9450612bd460208701612a4f565b935060408601356001600160401b0380821115612bf057600080fd5b612bfc89838a01612a66565b94506060880135915080821115612c1257600080fd5b612c1e89838a01612a66565b93506080880135915080821115612c3457600080fd5b50612c4188828901612add565b9150509295509295909350565b600080600080600060a08688031215612c6657600080fd5b612c6f86612a4f565b9450612c7d60208701612a4f565b9350604086013592506060860135915060808601356001600160401b03811115612ca657600080fd5b612c4188828901612add565b60008060408385031215612cc557600080fd5b612cce83612a4f565b91506020830135612cde8161360d565b809150509250929050565b60008060408385031215612cfc57600080fd5b612d0583612a4f565b946020939093013593505050565b600080600060608486031215612d2857600080fd5b612d3184612a4f565b95602085013595506040909401359392505050565b60008060008060808587031215612d5c57600080fd5b612d6585612a4f565b9350602085013592506040850135915060608501356001600160401b03811115612d8e57600080fd5b612d9a87828801612add565b91505092959194509250565b60008060408385031215612db957600080fd5b82356001600160401b0380821115612dd057600080fd5b818501915085601f830112612de457600080fd5b81356020612df1826133b3565b604051612dfe828261349f565b8381528281019150858301600585901b870184018b1015612e1e57600080fd5b600096505b84871015612e4857612e3481612a4f565b835260019690960195918301918301612e23565b5096505086013592505080821115612e5f57600080fd5b50612e6c85828601612a66565b9150509250929050565b600060208284031215612e8857600080fd5b8135612b6b8161360d565b600060208284031215612ea557600080fd5b8151612b6b8161360d565b600060208284031215612ec257600080fd5b5035919050565b60008060408385031215612edc57600080fd5b50508035926020909101359150565b600060208284031215612efd57600080fd5b8135612b6b8161361b565b600060208284031215612f1a57600080fd5b8151612b6b8161361b565b600060208284031215612f3757600080fd5b81356001600160401b03811115612f4d57600080fd5b61197684828501612add565b600060208284031215612f6b57600080fd5b5051919050565b60008060408385031215612f8557600080fd5b8235915060208301356001600160401b03811115612fa257600080fd5b612e6c85828601612add565b600081518084526020808501945080840160005b83811015612fde57815187529582019590820190600101612fc2565b509495945050505050565b60008151808452613001816020860160208601613438565b601f01601f19169290920160200192915050565b8054600090600181811c908083168061302f57607f831692505b602080841082141561305157634e487b7160e01b600052602260045260246000fd5b8180156130655760018114613076576130a3565b60ff198616895284890196506130a3565b60008881526020902060005b8681101561309b5781548b820152908501908301613082565b505084890196505b50505050505092915050565b60006130bb8285613015565b83516130cb818360208801613438565b64173539b7b760d91b9101908152600501949350505050565b60006130f08284613015565b6c1399589d5b1854d959591c1bd9609a1b815264173539b7b760d91b600d8201526012019392505050565b60006131278284613015565b6c131d5b9a585b94d959591c1bd9609a1b815264173539b7b760d91b600d8201526012019392505050565b6001600160a01b0386811682528516602082015260a06040820181905260009061317e90830186612fae565b82810360608401526131908186612fae565b905082810360808401526131a48185612fe9565b98975050505050505050565b6001600160a01b03868116825285166020820152604081018490526060810183905260a0608082018190526000906131ea90830184612fe9565b979650505050505050565b60018060a01b038416815282602082015260606040820152600061321c6060830184612fe9565b95945050505050565b602081526000612b6b6020830184612fae565b60408152600061324b6040830185612fae565b828103602084015261321c8185612fae565b602081526000612b6b6020830184612fe9565b60208082526028908201527f455243313135353a204552433131353552656365697665722072656a656374656040820152676420746f6b656e7360c01b606082015260800190565b60208082526025908201527f455243313135353a207472616e7366657220746f20746865207a65726f206164604082015264647265737360d81b606082015260800190565b6020808252602a908201527f455243313135353a20696e73756666696369656e742062616c616e636520666f60408201526939103a3930b739b332b960b11b606082015260800190565b6020808252818101527f4f776e61626c653a2063616c6c6572206973206e6f7420746865206f776e6572604082015260600190565b6020808252601b908201527f4d657461646174612069732066726f7a656e20666f7265766572210000000000604082015260600190565b60006001600160401b038211156133cc576133cc613552565b5060051b60200190565b600082198211156133e9576133e96134fa565b500190565b6000826133fd576133fd613510565b500490565b600081600019048311821515161561341c5761341c6134fa565b500290565b600082821015613433576134336134fa565b500390565b60005b8381101561345357818101518382015260200161343b565b8381111561110e5750506000910152565b600181811c9082168061347857607f821691505b6020821081141561349957634e487b7160e01b600052602260045260246000fd5b50919050565b601f8201601f191681016001600160401b03811182821017156134c4576134c4613552565b6040525050565b60006000198214156134df576134df6134fa565b5060010190565b6000826134f5576134f5613510565b500690565b634e487b7160e01b600052601160045260246000fd5b634e487b7160e01b600052601260045260246000fd5b634e487b7160e01b600052603160045260246000fd5b634e487b7160e01b600052603260045260246000fd5b634e487b7160e01b600052604160045260246000fd5b600060033d11156135815760046000803e5060005160e01c5b90565b600060443d10156135925790565b6040516003193d81016004833e81513d6001600160401b0381602484011181841117156135c157505050505090565b82850191508151818111156135d95750505050505090565b843d87010160208285010111156135f35750505050505090565b6136026020828601018761349f565b509095945050505050565b80151581146116f957600080fd5b6001600160e01b0319811681146116f957600080fdfea109ba539900bf1b633f956d63c96fc89b814c7287f7aa50a9216d0b55657207a26469706673582212207199958364104627067fe2d5d3cbd028e0d4c93a0c50523c73993689e3930c6564736f6c63430008070033",
  "linkReferences": {},
  "deployedLinkReferences": {}
}