{
  "_format": "hh-sol-artifact-1",
  "contractName": "LuniansCollection",
  "sourceName": "contracts/LuniansCollection.sol",
  "abi": [
    {
      "inputs": [
        {
          "internalType": "string",
          "name": "_name",
          "type": "string"
        },
        {
          "internalType": "string",
          "name": "_symbol",
          "type": "string"
        },
        {
          "internalType": "string",
          "name": "_lunianURI",
          "type": "string"
        },
        {
          "internalType": "string",
          "name": "_seedpodURI",
          "type": "string"
        },
        {
          "internalType": "string",
          "name": "_contractURI",
          "type": "string"
        },
        {
          "internalType": "address",
          "name": "_vrfCoordinator",
          "type": "address"
        },
        {
          "internalType": "address",
          "name": "_link",
          "type": "address"
        },
        {
          "internalType": "bytes32",
          "name": "_keyHash",
          "type": "bytes32"
        },
        {
          "internalType": "uint256",
          "name": "_fee",
          "type": "uint256"
        },
        {
          "internalType": "uint256[]",
          "name": "_nebulaIds",
          "type": "uint256[]"
        },
        {
          "internalType": "uint256[]",
          "name": "_lunianIds",
          "type": "uint256[]"
        }
      ],
      "stateMutability": "nonpayable",
      "type": "constructor"
    },
    {
      "anonymous": false,
      "inputs": [
        {
          "indexed": true,
          "internalType": "address",
          "name": "account",
          "type": "address"
        },
        {
          "indexed": true,
          "internalType": "address",
          "name": "operator",
          "type": "address"
        },
        {
          "indexed": false,
          "internalType": "bool",
          "name": "approved",
          "type": "bool"
        }
      ],
      "name": "ApprovalForAll",
      "type": "event"
    },
    {
      "anonymous": false,
      "inputs": [
        {
          "indexed": true,
          "internalType": "bytes32",
          "name": "requestId",
          "type": "bytes32"
        },
        {
          "indexed": true,
          "internalType": "uint256",
          "name": "result",
          "type": "uint256"
        }
      ],
      "name": "DiceLanded",
      "type": "event"
    },
    {
      "anonymous": false,
      "inputs": [
        {
          "indexed": true,
          "internalType": "bytes32",
          "name": "requestId",
          "type": "bytes32"
        },
        {
          "indexed": true,
          "internalType": "address",
          "name": "roller",
          "type": "address"
        }
      ],
      "name": "DiceRolled",
      "type": "event"
    },
    {
      "anonymous": false,
      "inputs": [
        {
          "indexed": true,
          "internalType": "address",
          "name": "lunianOwner",
          "type": "address"
        },
        {
          "indexed": true,
          "internalType": "uint256",
          "name": "lunianId",
          "type": "uint256"
        }
      ],
      "name": "LunianMinted",
      "type": "event"
    },
    {
      "anonymous": false,
      "inputs": [
        {
          "indexed": true,
          "internalType": "address",
          "name": "previousOwner",
          "type": "address"
        },
        {
          "indexed": true,
          "internalType": "address",
          "name": "newOwner",
          "type": "address"
        }
      ],
      "name": "OwnershipTransferred",
      "type": "event"
    },
    {
      "anonymous": false,
      "inputs": [
        {
          "indexed": false,
          "internalType": "address",
          "name": "_value",
          "type": "address"
        }
      ],
      "name": "PermanentAuthorizedContract",
      "type": "event"
    },
    {
      "anonymous": false,
      "inputs": [
        {
          "indexed": false,
          "internalType": "string",
          "name": "_value",
          "type": "string"
        },
        {
          "indexed": true,
          "internalType": "uint256",
          "name": "_id",
          "type": "uint256"
        }
      ],
      "name": "PermanentURI",
      "type": "event"
    },
    {
      "anonymous": false,
      "inputs": [
        {
          "indexed": true,
          "internalType": "address",
          "name": "operator",
          "type": "address"
        },
        {
          "indexed": true,
          "internalType": "address",
          "name": "from",
          "type": "address"
        },
        {
          "indexed": true,
          "internalType": "address",
          "name": "to",
          "type": "address"
        },
        {
          "indexed": false,
          "internalType": "uint256[]",
          "name": "ids",
          "type": "uint256[]"
        },
        {
          "indexed": false,
          "internalType": "uint256[]",
          "name": "values",
          "type": "uint256[]"
        }
      ],
      "name": "TransferBatch",
      "type": "event"
    },
    {
      "anonymous": false,
      "inputs": [
        {
          "indexed": true,
          "internalType": "address",
          "name": "operator",
          "type": "address"
        },
        {
          "indexed": true,
          "internalType": "address",
          "name": "from",
          "type": "address"
        },
        {
          "indexed": true,
          "internalType": "address",
          "name": "to",
          "type": "address"
        },
        {
          "indexed": false,
          "internalType": "uint256",
          "name": "id",
          "type": "uint256"
        },
        {
          "indexed": false,
          "internalType": "uint256",
          "name": "value",
          "type": "uint256"
        }
      ],
      "name": "TransferSingle",
      "type": "event"
    },
    {
      "anonymous": false,
      "inputs": [
        {
          "indexed": false,
          "internalType": "string",
          "name": "value",
          "type": "string"
        },
        {
          "indexed": true,
          "internalType": "uint256",
          "name": "id",
          "type": "uint256"
        }
      ],
      "name": "URI",
      "type": "event"
    },
    {
      "inputs": [],
      "name": "authorized",
      "outputs": [
        {
          "internalType": "address",
          "name": "",
          "type": "address"
        }
      ],
      "stateMutability": "view",
      "type": "function"
    },
    {
      "inputs": [
        {
          "internalType": "uint256",
          "name": "",
          "type": "uint256"
        }
      ],
      "name": "availableLunianIds",
      "outputs": [
        {
          "internalType": "uint256",
          "name": "",
          "type": "uint256"
        }
      ],
      "stateMutability": "view",
      "type": "function"
    },
    {
      "inputs": [
        {
          "internalType": "uint256",
          "name": "",
          "type": "uint256"
        }
      ],
      "name": "availableNebulaIds",
      "outputs": [
        {
          "internalType": "uint256",
          "name": "",
          "type": "uint256"
        }
      ],
      "stateMutability": "view",
      "type": "function"
    },
    {
      "inputs": [
        {
          "internalType": "address",
          "name": "account",
          "type": "address"
        },
        {
          "internalType": "uint256",
          "name": "id",
          "type": "uint256"
        }
      ],
      "name": "balanceOf",
      "outputs": [
        {
          "internalType": "uint256",
          "name": "",
          "type": "uint256"
        }
      ],
      "stateMutability": "view",
      "type": "function"
    },
    {
      "inputs": [
        {
          "internalType": "address[]",
          "name": "accounts",
          "type": "address[]"
        },
        {
          "internalType": "uint256[]",
          "name": "ids",
          "type": "uint256[]"
        }
      ],
      "name": "balanceOfBatch",
      "outputs": [
        {
          "internalType": "uint256[]",
          "name": "",
          "type": "uint256[]"
        }
      ],
      "stateMutability": "view",
      "type": "function"
    },
    {
      "inputs": [
        {
          "internalType": "address",
          "name": "_address",
          "type": "address"
        },
        {
          "internalType": "uint256",
          "name": "_id",
          "type": "uint256"
        },
        {
          "internalType": "uint256",
          "name": "_ammount",
          "type": "uint256"
        }
      ],
      "name": "burn",
      "outputs": [],
      "stateMutability": "nonpayable",
      "type": "function"
    },
    {
      "inputs": [],
      "name": "contractURI",
      "outputs": [
        {
          "internalType": "string",
          "name": "",
          "type": "string"
        }
      ],
      "stateMutability": "view",
      "type": "function"
    },
    {
      "inputs": [],
      "name": "freezeAuthorizedContract",
      "outputs": [],
      "stateMutability": "nonpayable",
      "type": "function"
    },
    {
      "inputs": [],
      "name": "freezeMetadata",
      "outputs": [],
      "stateMutability": "nonpayable",
      "type": "function"
    },
    {
      "inputs": [],
      "name": "frozenAuthorized",
      "outputs": [
        {
          "internalType": "bool",
          "name": "",
          "type": "bool"
        }
      ],
      "stateMutability": "view",
      "type": "function"
    },
    {
      "inputs": [],
      "name": "frozenMetadata",
      "outputs": [
        {
          "internalType": "bool",
          "name": "",
          "type": "bool"
        }
      ],
      "stateMutability": "view",
      "type": "function"
    },
    {
      "inputs": [
        {
          "internalType": "address",
          "name": "account",
          "type": "address"
        },
        {
          "internalType": "address",
          "name": "operator",
          "type": "address"
        }
      ],
      "name": "isApprovedForAll",
      "outputs": [
        {
          "internalType": "bool",
          "name": "",
          "type": "bool"
        }
      ],
      "stateMutability": "view",
      "type": "function"
    },
    {
      "inputs": [
        {
          "internalType": "uint256",
          "name": "_tokenId",
          "type": "uint256"
        }
      ],
      "name": "isLunian",
      "outputs": [
        {
          "internalType": "bool",
          "name": "",
          "type": "bool"
        }
      ],
      "stateMutability": "view",
      "type": "function"
    },
    {
      "inputs": [],
      "name": "linkBalance",
      "outputs": [
        {
          "internalType": "uint256",
          "name": "",
          "type": "uint256"
        }
      ],
      "stateMutability": "view",
      "type": "function"
    },
    {
      "inputs": [],
      "name": "maxLunians",
      "outputs": [
        {
          "internalType": "uint256",
          "name": "",
          "type": "uint256"
        }
      ],
      "stateMutability": "view",
      "type": "function"
    },
    {
      "inputs": [],
      "name": "maxSingularLunians",
      "outputs": [
        {
          "internalType": "uint8",
          "name": "",
          "type": "uint8"
        }
      ],
      "stateMutability": "view",
      "type": "function"
    },
    {
      "inputs": [
        {
          "internalType": "address",
          "name": "_address",
          "type": "address"
        },
        {
          "internalType": "uint256",
          "name": "_id",
          "type": "uint256"
        },
        {
          "internalType": "uint256",
          "name": "_ammount",
          "type": "uint256"
        },
        {
          "internalType": "bytes",
          "name": "_data",
          "type": "bytes"
        }
      ],
      "name": "mint",
      "outputs": [],
      "stateMutability": "nonpayable",
      "type": "function"
    },
    {
      "inputs": [
        {
          "internalType": "uint256",
          "name": "_seedpodId",
          "type": "uint256"
        },
        {
          "internalType": "uint256",
          "name": "_amount",
          "type": "uint256"
        }
      ],
      "name": "mintLunian",
      "outputs": [],
      "stateMutability": "nonpayable",
      "type": "function"
    },
    {
      "inputs": [
        {
          "internalType": "uint256",
          "name": "_amount",
          "type": "uint256"
        },
        {
          "internalType": "uint256",
          "name": "_seedpodId",
          "type": "uint256"
        }
      ],
      "name": "mintOpenSeedpod",
      "outputs": [],
      "stateMutability": "nonpayable",
      "type": "function"
    },
    {
      "inputs": [
        {
          "internalType": "uint256",
          "name": "_amount",
          "type": "uint256"
        }
      ],
      "name": "mintSeedpod",
      "outputs": [],
      "stateMutability": "nonpayable",
      "type": "function"
    },
    {
      "inputs": [],
      "name": "mintedLunians",
      "outputs": [
        {
          "internalType": "uint256",
          "name": "",
          "type": "uint256"
        }
      ],
      "stateMutability": "view",
      "type": "function"
    },
    {
      "inputs": [],
      "name": "name",
      "outputs": [
        {
          "internalType": "string",
          "name": "",
          "type": "string"
        }
      ],
      "stateMutability": "view",
      "type": "function"
    },
    {
      "inputs": [],
      "name": "owner",
      "outputs": [
        {
          "internalType": "address",
          "name": "",
          "type": "address"
        }
      ],
      "stateMutability": "view",
      "type": "function"
    },
    {
      "inputs": [
        {
          "internalType": "bool",
          "name": "_state",
          "type": "bool"
        }
      ],
      "name": "pause",
      "outputs": [],
      "stateMutability": "nonpayable",
      "type": "function"
    },
    {
      "inputs": [
        {
          "internalType": "bytes32",
          "name": "requestId",
          "type": "bytes32"
        },
        {
          "internalType": "uint256",
          "name": "randomness",
          "type": "uint256"
        }
      ],
      "name": "rawFulfillRandomness",
      "outputs": [],
      "stateMutability": "nonpayable",
      "type": "function"
    },
    {
      "inputs": [],
      "name": "renounceOwnership",
      "outputs": [],
      "stateMutability": "nonpayable",
      "type": "function"
    },
    {
      "inputs": [],
      "name": "resetRollState",
      "outputs": [],
      "stateMutability": "nonpayable",
      "type": "function"
    },
    {
      "inputs": [],
      "name": "rollState",
      "outputs": [
        {
          "internalType": "bool",
          "name": "",
          "type": "bool"
        }
      ],
      "stateMutability": "view",
      "type": "function"
    },
    {
      "inputs": [
        {
          "internalType": "uint256",
          "name": "_tokenId",
          "type": "uint256"
        },
        {
          "internalType": "uint256",
          "name": "_salePrice",
          "type": "uint256"
        }
      ],
      "name": "royaltyInfo",
      "outputs": [
        {
          "internalType": "address",
          "name": "",
          "type": "address"
        },
        {
          "internalType": "uint256",
          "name": "",
          "type": "uint256"
        }
      ],
      "stateMutability": "view",
      "type": "function"
    },
    {
      "inputs": [
        {
          "internalType": "address",
          "name": "from",
          "type": "address"
        },
        {
          "internalType": "address",
          "name": "to",
          "type": "address"
        },
        {
          "internalType": "uint256[]",
          "name": "ids",
          "type": "uint256[]"
        },
        {
          "internalType": "uint256[]",
          "name": "amounts",
          "type": "uint256[]"
        },
        {
          "internalType": "bytes",
          "name": "data",
          "type": "bytes"
        }
      ],
      "name": "safeBatchTransferFrom",
      "outputs": [],
      "stateMutability": "nonpayable",
      "type": "function"
    },
    {
      "inputs": [
        {
          "internalType": "address",
          "name": "from",
          "type": "address"
        },
        {
          "internalType": "address",
          "name": "to",
          "type": "address"
        },
        {
          "internalType": "uint256",
          "name": "id",
          "type": "uint256"
        },
        {
          "internalType": "uint256",
          "name": "amount",
          "type": "uint256"
        },
        {
          "internalType": "bytes",
          "name": "data",
          "type": "bytes"
        }
      ],
      "name": "safeTransferFrom",
      "outputs": [],
      "stateMutability": "nonpayable",
      "type": "function"
    },
    {
      "inputs": [
        {
          "internalType": "address",
          "name": "operator",
          "type": "address"
        },
        {
          "internalType": "bool",
          "name": "approved",
          "type": "bool"
        }
      ],
      "name": "setApprovalForAll",
      "outputs": [],
      "stateMutability": "nonpayable",
      "type": "function"
    },
    {
      "inputs": [
        {
          "internalType": "address",
          "name": "_authorized",
          "type": "address"
        }
      ],
      "name": "setAuthorized",
      "outputs": [],
      "stateMutability": "nonpayable",
      "type": "function"
    },
    {
      "inputs": [
        {
          "internalType": "uint256",
          "name": "_fee",
          "type": "uint256"
        }
      ],
      "name": "setFee",
      "outputs": [],
      "stateMutability": "nonpayable",
      "type": "function"
    },
    {
      "inputs": [
        {
          "internalType": "bytes32",
          "name": "_keyHash",
          "type": "bytes32"
        }
      ],
      "name": "setKeyHash",
      "outputs": [],
      "stateMutability": "nonpayable",
      "type": "function"
    },
    {
      "inputs": [
        {
          "internalType": "bool",
          "name": "_remains",
          "type": "bool"
        }
      ],
      "name": "setRemains",
      "outputs": [],
      "stateMutability": "nonpayable",
      "type": "function"
    },
    {
      "inputs": [
        {
          "internalType": "string",
          "name": "_newuri",
          "type": "string"
        }
      ],
      "name": "setURILunian",
      "outputs": [],
      "stateMutability": "nonpayable",
      "type": "function"
    },
    {
      "inputs": [
        {
          "internalType": "string",
          "name": "_newuri",
          "type": "string"
        }
      ],
      "name": "setURISeedpod",
      "outputs": [],
      "stateMutability": "nonpayable",
      "type": "function"
    },
    {
      "inputs": [
        {
          "internalType": "uint256",
          "name": "id",
          "type": "uint256"
        },
        {
          "internalType": "string",
          "name": "_newuri",
          "type": "string"
        }
      ],
      "name": "setURISingularLunian",
      "outputs": [],
      "stateMutability": "nonpayable",
      "type": "function"
    },
    {
      "inputs": [
        {
          "internalType": "bytes4",
          "name": "interfaceId",
          "type": "bytes4"
        }
      ],
      "name": "supportsInterface",
      "outputs": [
        {
          "internalType": "bool",
          "name": "",
          "type": "bool"
        }
      ],
      "stateMutability": "view",
      "type": "function"
    },
    {
      "inputs": [],
      "name": "symbol",
      "outputs": [
        {
          "internalType": "string",
          "name": "",
          "type": "string"
        }
      ],
      "stateMutability": "view",
      "type": "function"
    },
    {
      "inputs": [
        {
          "internalType": "address",
          "name": "newOwner",
          "type": "address"
        }
      ],
      "name": "transferOwnership",
      "outputs": [],
      "stateMutability": "nonpayable",
      "type": "function"
    },
    {
      "inputs": [
        {
          "internalType": "uint256",
          "name": "_tokenId",
          "type": "uint256"
        }
      ],
      "name": "uri",
      "outputs": [
        {
          "internalType": "string",
          "name": "",
          "type": "string"
        }
      ],
      "stateMutability": "view",
      "type": "function"
    }
  ],
  "bytecode": "0x60c06040526009805460ff199081169091556000600b819055600e819055600f55601a805490911690556023805460ff60ff60a81b01191690553480156200004657600080fd5b50604051620048c5380380620048c58339810160408190526200006991620005ad565b85858a62000077816200019f565b506200008c62000086620001b8565b620001d4565b6001600160601b0319606092831b811660a052911b166080528a51620000ba9060079060208e01906200038a565b508951620000d09060089060208d01906200038a565b508851620000e69060119060208c01906200038a565b508751620000fc9060109060208b01906200038a565b5086516200011290600a9060208a01906200038a565b50601b849055601c83905562000148620001346003546001600160a01b031690565b6102586200022660201b62001d5b1760201c565b81516200015d90601e90602085019062000419565b5080516200017390601d90602084019062000419565b50601e54600d819055601d546200018a916200077a565b600c5550620007f49950505050505050505050565b8051620001b49060029060208401906200038a565b5050565b6000620001cf6200032b60201b62001e581760201c565b905090565b600380546001600160a01b038381166001600160a01b0319831681179093556040519116919082907f8be0079c531659141344cd1fd0a4f28419497f9722a3daafe3b4186f6b6457e090600090a35050565b6127106001600160601b03821611156200029a5760405162461bcd60e51b815260206004820152602a60248201527f455243323938313a20726f79616c7479206665652077696c6c206578636565646044820152692073616c65507269636560b01b60648201526084015b60405180910390fd5b6001600160a01b038216620002f25760405162461bcd60e51b815260206004820152601960248201527f455243323938313a20696e76616c696420726563656976657200000000000000604482015260640162000291565b604080518082019091526001600160a01b039092168083526001600160601b039091166020909201829052600160a01b90910217600455565b6000333014156200038457600080368080601f0160208091040260200160405190810160405280939291908181526020018383808284376000920191909152505050503601516001600160a01b03169150620003879050565b50335b90565b8280546200039890620007a1565b90600052602060002090601f016020900481019282620003bc576000855562000407565b82601f10620003d757805160ff191683800117855562000407565b8280016001018555821562000407579182015b8281111562000407578251825591602001919060010190620003ea565b506200041592915062000456565b5090565b82805482825590600052602060002090810192821562000407579160200282018281111562000407578251825591602001919060010190620003ea565b5b8082111562000415576000815560010162000457565b80516001600160a01b03811681146200048557600080fd5b919050565b600082601f8301126200049c57600080fd5b815160206001600160401b03821115620004ba57620004ba620007de565b8160051b620004cb82820162000747565b838152828101908684018388018501891015620004e757600080fd5b600093505b858410156200050c578051835260019390930192918401918401620004ec565b50979650505050505050565b600082601f8301126200052a57600080fd5b81516001600160401b03811115620005465762000546620007de565b60206200055c601f8301601f1916820162000747565b82815285828487010111156200057157600080fd5b60005b838110156200059157858101830151828201840152820162000574565b83811115620005a35760008385840101525b5095945050505050565b60008060008060008060008060008060006101608c8e031215620005d057600080fd5b8b516001600160401b03811115620005e757600080fd5b620005f58e828f0162000518565b60208e0151909c5090506001600160401b038111156200061457600080fd5b620006228e828f0162000518565b60408e0151909b5090506001600160401b038111156200064157600080fd5b6200064f8e828f0162000518565b60608e0151909a5090506001600160401b038111156200066e57600080fd5b6200067c8e828f0162000518565b60808e015190995090506001600160401b038111156200069b57600080fd5b620006a98e828f0162000518565b975050620006ba60a08d016200046d565b9550620006ca60c08d016200046d565b60e08d01516101008e01516101208f015192975090955093506001600160401b03811115620006f857600080fd5b620007068e828f016200048a565b6101408e015190935090506001600160401b038111156200072657600080fd5b620007348e828f016200048a565b9150509295989b509295989b9093969950565b604051601f8201601f191681016001600160401b0381118282101715620007725762000772620007de565b604052919050565b600082198211156200079c57634e487b7160e01b600052601160045260246000fd5b500190565b600181811c90821680620007b657607f821691505b60208210811415620007d857634e487b7160e01b600052602260045260246000fd5b50919050565b634e487b7160e01b600052604160045260246000fd5b60805160601c60a05160601c6140976200082e6000396000818161154601526129af015260008181611685015261298001526140976000f3fe608060405234801561001057600080fd5b50600436106102685760003560e01c80638529ccad11610151578063c26ecefa116100c3578063e5d8963711610087578063e5d8963714610540578063e8a3d48514610553578063e985e9c51461055b578063f242432a1461056e578063f2fde38b14610581578063f5298aca1461059457600080fd5b8063c26ecefa146104fd578063cac4fc2914610505578063d111515d14610518578063d710096a14610520578063db3a54991461052d57600080fd5b806395d89b411161011557806395d89b411461049657806397fbb2081461049e57806398544710146104b1578063a1da8a9f146104c4578063a22cb465146104d7578063b36cd47c146104ea57600080fd5b80638529ccad14610449578063899b476b146104565780638da5cb5b1461046a5780638ffb33ff1461047b57806394985ddd1461048357600080fd5b806335bd37e3116101ea5780634e1273f4116101ae5780634e1273f4146103d95780635f3cfbde146103f957806369fe0e2d14610401578063715018a614610414578063731133e91461041c57806378f0d4271461042f57600080fd5b806335bd37e314610367578063367246531461037a5780633b7058581461038d578063456cb7c6146103965780634bc9ba78146103c657600080fd5b80630e89341c116102315780630e89341c146102e957806314fc2812146102fc57806320dd631a1461030f5780632a55205a146103225780632eb2c2d61461035457600080fd5b8062fdd58e1461026d57806301ffc9a71461029357806302329a29146102b657806306fdde03146102cb5780630e1fb0d0146102e0575b600080fd5b61028061027b366004613561565b6105a7565b6040519081526020015b60405180910390f35b6102a66102a1366004613763565b610641565b604051901515815260200161028a565b6102c96102c43660046136ee565b61064c565b005b6102d36106a8565b60405161028a9190613b51565b610280600b5481565b6102d36102f7366004613728565b610736565b6102c961030a3660046133cf565b6108d4565b6102c961031d3660046137ea565b6109ad565b610335610330366004613741565b610a7b565b604080516001600160a01b03909316835260208301919091520161028a565b6102c961036236600461341d565b610b27565b6102c961037536600461379d565b610bd0565b6102c9610388366004613741565b610c68565b610280600c5481565b6023546103ae9061010090046001600160a01b031681565b6040516001600160a01b03909116815260200161028a565b6102c96103d4366004613728565b610ea8565b6103ec6103e736600461361e565b61116f565b60405161028a9190613b19565b6102c9611298565b6102c961040f366004613728565b6112ed565b6102c961133b565b6102c961042a3660046135be565b611390565b610437600881565b60405160ff909116815260200161028a565b6023546102a69060ff1681565b6023546102a690600160a81b900460ff1681565b6003546001600160a01b03166103ae565b6102c9611499565b6102c9610491366004613741565b61153b565b6102d36115bd565b6102806104ac366004613728565b6115ca565b6102c96104bf366004613728565b6115eb565b6102a66104d2366004613728565b611639565b6102c96104e536600461352a565b61164b565b6102806104f8366004613728565b61165d565b61028061166d565b6102c96105133660046136ee565b61170c565b6102c9611768565b601f546102a69060ff1681565b6102c961053b366004613741565b6117c0565b6102c961054e36600461379d565b611a85565b6102d3611b34565b6102a66105693660046133ea565b611b41565b6102c961057c3660046134c6565b611ba1565b6102c961058f3660046133cf565b611c3a565b6102c96105a236600461358b565b611cf4565b60006001600160a01b0383166106185760405162461bcd60e51b815260206004820152602b60248201527f455243313135353a2062616c616e636520717565727920666f7220746865207a60448201526a65726f206164647265737360a81b60648201526084015b60405180910390fd5b506000818152602081815260408083206001600160a01b03861684529091529020545b92915050565b600061063b82611eb5565b610654611eda565b6001600160a01b031661066f6003546001600160a01b031690565b6001600160a01b0316146106955760405162461bcd60e51b815260040161060f90613c65565b6009805460ff1916911515919091179055565b600780546106b590613e75565b80601f01602080910402602001604051908101604052809291908181526020018280546106e190613e75565b801561072e5780601f106107035761010080835404028352916020019161072e565b820191906000526020600020905b81548152906001019060200180831161071157829003601f168201915b505050505081565b6060600c5460116107479190613de7565b821061078b5760405162461bcd60e51b8152602060048201526013602482015272546f6b656e206f7574206f66206c696d69747360681b604482015260640161060f565b600c5482116107c657601161079f83611ee4565b6040516020016107b0929190613927565b6040516020818303038152906040529050919050565b600c546107d4906001613de7565b8214156107ed5760106040516020016107b0919061395c565b600c546107fb906002613de7565b8214156108145760106040516020016107b09190613a0f565b600c54610822906003613de7565b82141561083b5760106040516020016107b09190613993565b600c54610849906004613de7565b8214156108625760106040516020016107b091906139d1565b60006005600c54846108749190613e32565b61087e9190613e32565b90506012816008811061089357610893613f4d565b016108a76108a2836001613de7565b611ee4565b6040516020016108b8929190613927565b604051602081830303815290604052915050919050565b919050565b6108dc611eda565b6001600160a01b03166108f76003546001600160a01b031690565b6001600160a01b03161461091d5760405162461bcd60e51b815260040161060f90613c65565b602354600160a81b900460ff16156109855760405162461bcd60e51b815260206004820152602560248201527f417574686f72697a656420636f6e74726163742069732066726f7a656e20666f6044820152643932bb32b960d91b606482015260840161060f565b602380546001600160a01b0390921661010002610100600160a81b0319909216919091179055565b60235460ff1615806109ce575060235461010090046001600160a01b031633145b6109ea5760405162461bcd60e51b815260040161060f90613c9a565b6003546001600160a01b0316331480610a12575060235461010090046001600160a01b031633145b610a2e5760405162461bcd60e51b815260040161060f90613d9c565b60088210610a4e5760405162461bcd60e51b815260040161060f90613bac565b8060128360088110610a6257610a62613f4d565b019080519060200190610a76929190613235565b505050565b60008281526005602090815260408083208151808301909252546001600160a01b038116808352600160a01b9091046001600160601b0316928201929092528291610af05750604080518082019091526004546001600160a01b0381168252600160a01b90046001600160601b031660208201525b602081015160009061271090610b0f906001600160601b031687613e13565b610b199190613dff565b915196919550909350505050565b610b2f611eda565b6001600160a01b0316856001600160a01b03161480610b555750610b5585610569611eda565b610bbc5760405162461bcd60e51b815260206004820152603260248201527f455243313135353a207472616e736665722063616c6c6572206973206e6f74206044820152711bdddb995c881b9bdc88185c1c1c9bdd995960721b606482015260840161060f565b610bc98585858585611fe9565b5050505050565b60235460ff161580610bf1575060235461010090046001600160a01b031633145b610c0d5760405162461bcd60e51b815260040161060f90613c9a565b6003546001600160a01b0316331480610c35575060235461010090046001600160a01b031633145b610c515760405162461bcd60e51b815260040161060f90613d9c565b8051610c64906011906020840190613235565b5050565b600c54600e5414610ce15760405162461bcd60e51b815260206004820152603b60248201527f43616e206e6f74206d696e742061206c756e69616e206265666f726520616c6c60448201527f2073656564706f64732068617665206265656e206d696e746564210000000000606482015260840161060f565b60095460ff1615610d285760405162461bcd60e51b8152602060048201526011602482015270135a5b9d1a5b99c81a5cc81c185d5cd959607a1b604482015260640161060f565b60008111610d785760405162461bcd60e51b815260206004820152601860248201527f43616e206e6f74206d696e74207a65726f204c756e69616e0000000000000000604482015260640161060f565b600c5481600b54610d899190613de7565b1115610dd75760405162461bcd60e51b815260206004820152601f60248201527f4e6f7420656e6f756768204c756e69616e73206c65667420746f206d696e7400604482015260640161060f565b80610de233846105a7565b1015610e3a5760405162461bcd60e51b815260206004820152602160248201527f4e6f7420656e6f7567682073656564706f6473206f776e656420746f206d696e6044820152601d60fa1b606482015260840161060f565b601f5460ff1615610e805760405162461bcd60e51b815260206004820152601060248201526f526f6c6c20696e2070726f677265737360801b604482015260640161060f565b610e8933612190565b5033600090815260216020908152604080832093909355602290522055565b610eb0611eda565b6001600160a01b0316610ecb6003546001600160a01b031690565b6001600160a01b031614610ef15760405162461bcd60e51b815260040161060f90613c65565b600c54600e5410610f575760405162461bcd60e51b815260206004820152602a60248201527f43616e206e6f74206d696e74206d6f72652073656564706f647320286c696d696044820152697420726561636865642960b01b606482015260840161060f565b600c5481600e54610f689190613de7565b1115610fb65760405162461bcd60e51b815260206004820152601d60248201527f43616e206e6f74206d696e7420736f206d616e792073656564706f6473000000604482015260640161060f565b600d5481600e54610fc79190613de7565b1161104b57610ff533600c546001610fdf9190613de7565b8360405180602001604052806000815250612260565b600c54611003906001613de7565b6000805160206140428339815191526010604051602001611024919061395c565b60408051601f198184030181529082905261103e91613b51565b60405180910390a2611155565b6000600e54600d5461105d9190613e32565b9050600d54600e5410156110d05761107e33600c546001610fdf9190613de7565b600c5461108c906001613de7565b60008051602061404283398151915260106040516020016110ad919061395c565b60408051601f19818403018152908290526110c791613b51565b60405180910390a25b61110233600c5460026110e39190613de7565b6110ed8486613e32565b60405180602001604052806000815250612260565b600c54611110906002613de7565b60008051602061404283398151915260106040516020016111319190613a0f565b60408051601f198184030181529082905261114b91613b51565b60405180910390a2505b80600e60008282546111679190613de7565b909155505050565b606081518351146111d45760405162461bcd60e51b815260206004820152602960248201527f455243313135353a206163636f756e747320616e6420696473206c656e677468604482015268040dad2e6dac2e8c6d60bb1b606482015260840161060f565b600083516001600160401b038111156111ef576111ef613f63565b604051908082528060200260200182016040528015611218578160200160208202803683370190505b50905060005b84518110156112905761126385828151811061123c5761123c613f4d565b602002602001015185838151811061125657611256613f4d565b60200260200101516105a7565b82828151811061127557611275613f4d565b602090810291909101015261128981613edc565b905061121e565b509392505050565b6112a0611eda565b6001600160a01b03166112bb6003546001600160a01b031690565b6001600160a01b0316146112e15760405162461bcd60e51b815260040161060f90613c65565b601f805460ff19169055565b6112f5611eda565b6001600160a01b03166113106003546001600160a01b031690565b6001600160a01b0316146113365760405162461bcd60e51b815260040161060f90613c65565b601c55565b611343611eda565b6001600160a01b031661135e6003546001600160a01b031690565b6001600160a01b0316146113845760405162461bcd60e51b815260040161060f90613c65565b61138e600061233b565b565b60235461010090046001600160a01b031633146113bf5760405162461bcd60e51b815260040161060f90613d9c565b600c546113cd906004613de7565b831161142d5760405162461bcd60e51b815260206004820152602960248201527f43616e206e6f74206d696e7420726567756c6172204c756e69616e73206e6f726044820152682073656564706f647360b81b606482015260840161060f565b600c5460089061143e906004613de7565b6114489190613de7565b83106114875760405162461bcd60e51b815260206004820152600e60248201526d092c840d2e640e8dede40d0d2ced60931b604482015260640161060f565b61149384848484612260565b50505050565b6114a1611eda565b6001600160a01b03166114bc6003546001600160a01b031690565b6001600160a01b0316146114e25760405162461bcd60e51b815260040161060f90613c65565b6023546040516101009091046001600160a01b031681527fae5e5383d97e81127593ec874d3b67711a5569f4dc983d69cf6d12f83d7dc7099060200160405180910390a16023805460ff60a81b1916600160a81b179055565b336001600160a01b037f000000000000000000000000000000000000000000000000000000000000000016146115b35760405162461bcd60e51b815260206004820152601f60248201527f4f6e6c7920565246436f6f7264696e61746f722063616e2066756c66696c6c00604482015260640161060f565b610c64828261238d565b600880546106b590613e75565b601d81815481106115da57600080fd5b600091825260209091200154905081565b6115f3611eda565b6001600160a01b031661160e6003546001600160a01b031690565b6001600160a01b0316146116345760405162461bcd60e51b815260040161060f90613c65565b601b55565b6000611644826123fe565b1592915050565b610c64611656611eda565b8383612433565b601e81815481106115da57600080fd5b6040516370a0823160e01b81523060048201526000907f00000000000000000000000000000000000000000000000000000000000000006001600160a01b0316906370a082319060240160206040518083038186803b1580156116cf57600080fd5b505afa1580156116e3573d6000803e3d6000fd5b505050506040513d601f19601f8201168201806040525081019061170791906137d1565b905090565b611714611eda565b6001600160a01b031661172f6003546001600160a01b031690565b6001600160a01b0316146117555760405162461bcd60e51b815260040161060f90613c65565b601a805460ff1916911515919091179055565b611770611eda565b6001600160a01b031661178b6003546001600160a01b031690565b6001600160a01b0316146117b15760405162461bcd60e51b815260040161060f90613c65565b6023805460ff19166001179055565b6117c8611eda565b6001600160a01b03166117e36003546001600160a01b031690565b6001600160a01b0316146118095760405162461bcd60e51b815260040161060f90613c65565b600e54600f54106118775760405162461bcd60e51b815260206004820152603260248201527f43616e206e6f74206d696e74206d6f726520686174636865642073656564706f604482015271647320286c696d697420726561636865642960701b606482015260840161060f565b600e5482600f546118889190613de7565b11156118e45760405162461bcd60e51b815260206004820152602560248201527f43616e206e6f74206d696e7420736f206d616e7920686174636865642073656560448201526464706f647360d81b606482015260840161060f565b600c546118f2906001613de7565b81148061190b5750600c54611908906002613de7565b81145b6119275760405162461bcd60e51b815260040161060f90613bac565b601a5460ff166119715760405162461bcd60e51b815260206004820152601560248201527414995b585a5b9cc81b9bdd081858dd1a5d985d1959605a1b604482015260640161060f565b600c5461197f906001613de7565b811415611a05576119af33600c5460036119999190613de7565b8460405180602001604052806000815250612260565b600c546119bd906003613de7565b60008051602061404283398151915260106040516020016119de9190613993565b60408051601f19818403018152908290526119f891613b51565b60405180910390a2611a6a565b611a1833600c5460046119999190613de7565b600c54611a26906004613de7565b6000805160206140428339815191526010604051602001611a4791906139d1565b60408051601f1981840301815290829052611a6191613b51565b60405180910390a25b81600f6000828254611a7c9190613de7565b90915550505050565b611a8d611eda565b6001600160a01b0316611aa86003546001600160a01b031690565b6001600160a01b031614611ace5760405162461bcd60e51b815260040161060f90613c65565b60235460ff1615611b215760405162461bcd60e51b815260206004820152601b60248201527f4d657461646174612069732066726f7a656e20666f7265766572210000000000604482015260640161060f565b8051610c64906010906020840190613235565b600a80546106b590613e75565b60006001600160a01b03821673207fa8df3a17d96ca7ea4f2893fcdcb78a3041011415611b705750600161063b565b6001600160a01b0380841660009081526001602090815260408083209386168352929052205460ff165b9392505050565b611ba9611eda565b6001600160a01b0316856001600160a01b03161480611bcf5750611bcf85610569611eda565b611c2d5760405162461bcd60e51b815260206004820152602960248201527f455243313135353a2063616c6c6572206973206e6f74206f776e6572206e6f7260448201526808185c1c1c9bdd995960ba1b606482015260840161060f565b610bc98585858585612514565b611c42611eda565b6001600160a01b0316611c5d6003546001600160a01b031690565b6001600160a01b031614611c835760405162461bcd60e51b815260040161060f90613c65565b6001600160a01b038116611ce85760405162461bcd60e51b815260206004820152602660248201527f4f776e61626c653a206e6577206f776e657220697320746865207a65726f206160448201526564647265737360d01b606482015260840161060f565b611cf18161233b565b50565b60235461010090046001600160a01b03163314611d235760405162461bcd60e51b815260040161060f90613d9c565b600082118015611d345750600c5482105b611d505760405162461bcd60e51b815260040161060f90613bac565b610a7683838361263c565b6127106001600160601b0382161115611dc95760405162461bcd60e51b815260206004820152602a60248201527f455243323938313a20726f79616c7479206665652077696c6c206578636565646044820152692073616c65507269636560b01b606482015260840161060f565b6001600160a01b038216611e1f5760405162461bcd60e51b815260206004820152601960248201527f455243323938313a20696e76616c696420726563656976657200000000000000604482015260640161060f565b604080518082019091526001600160a01b039092168083526001600160601b039091166020909201829052600160a01b90910217600455565b600033301415611eaf57600080368080601f0160208091040260200160405190810160405280939291908181526020018383808284376000920191909152505050503601516001600160a01b03169150611eb29050565b50335b90565b60006001600160e01b0319821663152a902d60e11b148061063b575061063b826127c1565b6000611707611e58565b606081611f085750506040805180820190915260018152600360fc1b602082015290565b8160005b8115611f325780611f1c81613edc565b9150611f2b9050600a83613dff565b9150611f0c565b6000816001600160401b03811115611f4c57611f4c613f63565b6040519080825280601f01601f191660200182016040528015611f76576020820181803683370190505b5090505b8415611fe157611f8b600183613e32565b9150611f98600a86613ef7565b611fa3906030613de7565b60f81b818381518110611fb857611fb8613f4d565b60200101906001600160f81b031916908160001a905350611fda600a86613dff565b9450611f7a565b949350505050565b815183511461200a5760405162461bcd60e51b815260040161060f90613d13565b6001600160a01b0384166120305760405162461bcd60e51b815260040161060f90613bd6565b600061203a611eda565b905060005b845181101561212257600085828151811061205c5761205c613f4d565b60200260200101519050600085838151811061207a5761207a613f4d565b602090810291909101810151600084815280835260408082206001600160a01b038e1683529093529190912054909150818110156120ca5760405162461bcd60e51b815260040161060f90613c1b565b6000838152602081815260408083206001600160a01b038e8116855292528083208585039055908b16825281208054849290612107908490613de7565b925050819055505050508061211b90613edc565b905061203f565b50846001600160a01b0316866001600160a01b0316826001600160a01b03167f4a39dc06d4c0dbc64b70af90fd698a233a518aa5d07e595d983b8c0526c8f7fb8787604051612172929190613b2c565b60405180910390a4612188818787878787612811565b505050505050565b6000601c5461219d61166d565b10156121eb5760405162461bcd60e51b815260206004820152601a60248201527f4e6f7420656e6f756768204c494e4b20746f2070617920666565000000000000604482015260640161060f565b6121f9601b54601c5461297c565b600081815260208052604080822080546001600160a01b0319166001600160a01b038716908117909155601f805460ff1916600117905590519293509183917f923de4fc4aece24a78a9e4ca3009c571a742f81ac2c004a229224b0fd1883bdd91a3919050565b6001600160a01b0384166122865760405162461bcd60e51b815260040161060f90613d5b565b6000612290611eda565b90506122ab816000876122a288612b07565b610bc988612b07565b6000848152602081815260408083206001600160a01b0389168452909152812080548592906122db908490613de7565b909155505060408051858152602081018590526001600160a01b0380881692600092918516917fc3d58168c5ae7397731d063d5bbf3d657854427343f4c083240f7aacaa2d0f62910160405180910390a4610bc981600087878787612b52565b600380546001600160a01b038381166001600160a01b0319831681179093556040519116919082907f8be0079c531659141344cd1fd0a4f28419497f9722a3daafe3b4186f6b6457e090600090a35050565b604051819083907f909dd726737b7ffa4ae9d137e9edebe8a74a9c2910a4b60e8112f93ab217083790600090a3601f805460ff19169055600082815260208080526040808320546001600160a01b031683526021825280832054602290925290912054610c64918491849190612c1c565b6000600c548211801561241e5750600c5461241a906004613de7565b8211155b1561242b57506001919050565b506000919050565b816001600160a01b0316836001600160a01b031614156124a75760405162461bcd60e51b815260206004820152602960248201527f455243313135353a2073657474696e6720617070726f76616c20737461747573604482015268103337b91039b2b63360b91b606482015260840161060f565b6001600160a01b03838116600081815260016020908152604080832094871680845294825291829020805460ff191686151590811790915591519182527f17307eab39ab6107e8899845ad3d59bd9653f200f220920489ca2b5937696c31910160405180910390a3505050565b6001600160a01b03841661253a5760405162461bcd60e51b815260040161060f90613bd6565b6000612544611eda565b90506125558187876122a288612b07565b6000848152602081815260408083206001600160a01b038a168452909152902054838110156125965760405162461bcd60e51b815260040161060f90613c1b565b6000858152602081815260408083206001600160a01b038b81168552925280832087850390559088168252812080548692906125d3908490613de7565b909155505060408051868152602081018690526001600160a01b03808916928a821692918616917fc3d58168c5ae7397731d063d5bbf3d657854427343f4c083240f7aacaa2d0f62910160405180910390a4612633828888888888612b52565b50505050505050565b6001600160a01b03831661269e5760405162461bcd60e51b815260206004820152602360248201527f455243313135353a206275726e2066726f6d20746865207a65726f206164647260448201526265737360e81b606482015260840161060f565b60006126a8611eda565b90506126d9818560006126ba87612b07565b6126c387612b07565b5050604080516020810190915260009052505050565b6000838152602081815260408083206001600160a01b0388168452909152902054828110156127565760405162461bcd60e51b8152602060048201526024808201527f455243313135353a206275726e20616d6f756e7420657863656564732062616c604482015263616e636560e01b606482015260840161060f565b6000848152602081815260408083206001600160a01b03898116808652918452828520888703905582518981529384018890529092908616917fc3d58168c5ae7397731d063d5bbf3d657854427343f4c083240f7aacaa2d0f62910160405180910390a45050505050565b60006001600160e01b03198216636cdb3d1360e11b14806127f257506001600160e01b031982166303a24d0760e21b145b8061063b57506301ffc9a760e01b6001600160e01b031983161461063b565b6001600160a01b0384163b156121885760405163bc197c8160e01b81526001600160a01b0385169063bc197c81906128559089908990889088908890600401613a46565b602060405180830381600087803b15801561286f57600080fd5b505af192505050801561289f575060408051601f3d908101601f1916820190925261289c91810190613780565b60015b61294c576128ab613f79565b806308c379a014156128e557506128c0613f94565b806128cb57506128e7565b8060405162461bcd60e51b815260040161060f9190613b51565b505b60405162461bcd60e51b815260206004820152603460248201527f455243313135353a207472616e7366657220746f206e6f6e20455243313135356044820152732932b1b2b4bb32b91034b6b83632b6b2b73a32b960611b606482015260840161060f565b6001600160e01b0319811663bc197c8160e01b146126335760405162461bcd60e51b815260040161060f90613b64565b60007f00000000000000000000000000000000000000000000000000000000000000006001600160a01b0316634000aea07f0000000000000000000000000000000000000000000000000000000000000000848660006040516020016129ec929190918252602082015260400190565b6040516020818303038152906040526040518463ffffffff1660e01b8152600401612a1993929190613ae9565b602060405180830381600087803b158015612a3357600080fd5b505af1158015612a47573d6000803e3d6000fd5b505050506040513d601f19601f82011682018060405250810190612a6b919061370b565b50600083815260066020818152604080842054815180840189905280830186905230606082015260808082018390528351808303909101815260a090910190925281519183019190912093879052919052612ac7906001613de7565b600085815260066020526040902055611fe18482604080516020808201949094528082019290925280518083038201815260609092019052805191012090565b60408051600180825281830190925260609160009190602080830190803683370190505090508281600081518110612b4157612b41613f4d565b602090810291909101015292915050565b6001600160a01b0384163b156121885760405163f23a6e6160e01b81526001600160a01b0385169063f23a6e6190612b969089908990889088908890600401613aa4565b602060405180830381600087803b158015612bb057600080fd5b505af1925050508015612be0575060408051601f3d908101601f19168201909252612bdd91810190613780565b60015b612bec576128ab613f79565b6001600160e01b0319811663f23a6e6160e01b146126335760405162461bcd60e51b815260040161060f90613b64565b6000848152602080526040902054612c3d906001600160a01b0316826105a7565b821115612cbc5760405162461bcd60e51b815260206004820152604160248201527f4e6f7420656e6f7567682073656564706f6473206f776e656420746f206d696e60448201527f742074686520737065636966696564206e756d626572206f66206c756e69616e6064820152607360f81b608482015260a40161060f565b6000848152602080526040902054612cde906001600160a01b0316828461263c565b600080836001600160401b03811115612cf957612cf9613f63565b604051908082528060200260200182016040528015612d22578160200160208202803683370190505b5090506000846001600160401b03811115612d3f57612d3f613f63565b604051908082528060200260200182016040528015612d68578160200160208202803683370190505b50905060005b8581101561306c57612d7f856130bf565b15612e7157601e5460408051602081018a90529081018390526060016040516020818303038152906040528051906020012060001c612dbe9190613ef7565b9350601e8481548110612dd357612dd3613f4d565b9060005260206000200154838281518110612df057612df0613f4d565b6020908102919091010152601e8054612e0b90600190613e32565b81548110612e1b57612e1b613f4d565b9060005260206000200154601e8581548110612e3957612e39613f4d565b600091825260209091200155601e805480612e5657612e56613f37565b60019003818190600052602060002001600090559055612f5a565b601d5460408051602081018a90529081018390526060016040516020818303038152906040528051906020012060001c612eab9190613ef7565b9350601d8481548110612ec057612ec0613f4d565b9060005260206000200154838281518110612edd57612edd613f4d565b6020908102919091010152601d8054612ef890600190613e32565b81548110612f0857612f08613f4d565b9060005260206000200154601d8581548110612f2657612f26613f4d565b600091825260209091200155601d805480612f4357612f43613f37565b600190038181906000526020600020016000905590555b6001828281518110612f6e57612f6e613f4d565b602002602001018181525050828181518110612f8c57612f8c613f4d565b60200260200101516000805160206140428339815191526011612fc7868581518110612fba57612fba613f4d565b6020026020010151611ee4565b604051602001612fd8929190613927565b60408051601f1981840301815290829052612ff291613b51565b60405180910390a282818151811061300c5761300c613f4d565b60209081029190910181015160008a8152918052604080832054905191926001600160a01b03909116917fc171ac14b29b6eb125a5e97011d9b8f38a3f9772b882a79fcdd02412402685539190a38061306481613edc565b915050612d6e565b5060008781526020808052604080832054815192830190915291815261309f916001600160a01b031690849084906130df565b84600b60008282546130b19190613de7565b909155505050505050505050565b6000600c5460016130d09190613de7565b82141561242b57506001919050565b6001600160a01b0384166131055760405162461bcd60e51b815260040161060f90613d5b565b81518351146131265760405162461bcd60e51b815260040161060f90613d13565b6000613130611eda565b905060005b84518110156131cd5783818151811061315057613150613f4d565b602002602001015160008087848151811061316d5761316d613f4d565b602002602001015181526020019081526020016000206000886001600160a01b03166001600160a01b0316815260200190815260200160002060008282546131b59190613de7565b909155508190506131c581613edc565b915050613135565b50846001600160a01b031660006001600160a01b0316826001600160a01b03167f4a39dc06d4c0dbc64b70af90fd698a233a518aa5d07e595d983b8c0526c8f7fb878760405161321e929190613b2c565b60405180910390a4610bc981600087878787612811565b82805461324190613e75565b90600052602060002090601f01602090048101928261326357600085556132a9565b82601f1061327c57805160ff19168380011785556132a9565b828001600101855582156132a9579182015b828111156132a957825182559160200191906001019061328e565b506132b59291506132b9565b5090565b5b808211156132b557600081556001016132ba565b80356001600160a01b03811681146108cf57600080fd5b600082601f8301126132f657600080fd5b8135602061330382613dc4565b6040516133108282613eb0565b8381528281019150858301600585901b8701840188101561333057600080fd5b60005b8581101561334f57813584529284019290840190600101613333565b5090979650505050505050565b600082601f83011261336d57600080fd5b81356001600160401b0381111561338657613386613f63565b60405161339d601f8301601f191660200182613eb0565b8181528460208386010111156133b257600080fd5b816020850160208301376000918101602001919091529392505050565b6000602082840312156133e157600080fd5b611b9a826132ce565b600080604083850312156133fd57600080fd5b613406836132ce565b9150613414602084016132ce565b90509250929050565b600080600080600060a0868803121561343557600080fd5b61343e866132ce565b945061344c602087016132ce565b935060408601356001600160401b038082111561346857600080fd5b61347489838a016132e5565b9450606088013591508082111561348a57600080fd5b61349689838a016132e5565b935060808801359150808211156134ac57600080fd5b506134b98882890161335c565b9150509295509295909350565b600080600080600060a086880312156134de57600080fd5b6134e7866132ce565b94506134f5602087016132ce565b9350604086013592506060860135915060808601356001600160401b0381111561351e57600080fd5b6134b98882890161335c565b6000806040838503121561353d57600080fd5b613546836132ce565b915060208301356135568161401d565b809150509250929050565b6000806040838503121561357457600080fd5b61357d836132ce565b946020939093013593505050565b6000806000606084860312156135a057600080fd5b6135a9846132ce565b95602085013595506040909401359392505050565b600080600080608085870312156135d457600080fd5b6135dd856132ce565b9350602085013592506040850135915060608501356001600160401b0381111561360657600080fd5b6136128782880161335c565b91505092959194509250565b6000806040838503121561363157600080fd5b82356001600160401b038082111561364857600080fd5b818501915085601f83011261365c57600080fd5b8135602061366982613dc4565b6040516136768282613eb0565b8381528281019150858301600585901b870184018b101561369657600080fd5b600096505b848710156136c0576136ac816132ce565b83526001969096019591830191830161369b565b50965050860135925050808211156136d757600080fd5b506136e4858286016132e5565b9150509250929050565b60006020828403121561370057600080fd5b8135611b9a8161401d565b60006020828403121561371d57600080fd5b8151611b9a8161401d565b60006020828403121561373a57600080fd5b5035919050565b6000806040838503121561375457600080fd5b50508035926020909101359150565b60006020828403121561377557600080fd5b8135611b9a8161402b565b60006020828403121561379257600080fd5b8151611b9a8161402b565b6000602082840312156137af57600080fd5b81356001600160401b038111156137c557600080fd5b611fe18482850161335c565b6000602082840312156137e357600080fd5b5051919050565b600080604083850312156137fd57600080fd5b8235915060208301356001600160401b0381111561381a57600080fd5b6136e48582860161335c565b600081518084526020808501945080840160005b838110156138565781518752958201959082019060010161383a565b509495945050505050565b60008151808452613879816020860160208601613e49565b601f01601f19169290920160200192915050565b8054600090600181811c90808316806138a757607f831692505b60208084108214156138c957634e487b7160e01b600052602260045260246000fd5b8180156138dd57600181146138ee5761391b565b60ff1986168952848901965061391b565b60008881526020902060005b868110156139135781548b8201529085019083016138fa565b505084890196505b50505050505092915050565b6000613933828561388d565b8351613943818360208801613e49565b64173539b7b760d91b9101908152600501949350505050565b6000613968828461388d565b6c1399589d5b1854d959591c1bd9609a1b815264173539b7b760d91b600d8201526012019392505050565b600061399f828461388d565b7312185d18da19591399589d5b1854d959591c1bd960621b815264173539b7b760d91b60148201526019019392505050565b60006139dd828461388d565b7312185d18da1959131d5b9a585b94d959591c1bd960621b815264173539b7b760d91b60148201526019019392505050565b6000613a1b828461388d565b6c131d5b9a585b94d959591c1bd9609a1b815264173539b7b760d91b600d8201526012019392505050565b6001600160a01b0386811682528516602082015260a060408201819052600090613a7290830186613826565b8281036060840152613a848186613826565b90508281036080840152613a988185613861565b98975050505050505050565b6001600160a01b03868116825285166020820152604081018490526060810183905260a060808201819052600090613ade90830184613861565b979650505050505050565b60018060a01b0384168152826020820152606060408201526000613b106060830184613861565b95945050505050565b602081526000611b9a6020830184613826565b604081526000613b3f6040830185613826565b8281036020840152613b108185613826565b602081526000611b9a6020830184613861565b60208082526028908201527f455243313135353a204552433131353552656365697665722072656a656374656040820152676420746f6b656e7360c01b606082015260800190565b60208082526010908201526f4964206f7574206f6620626f756e647360801b604082015260600190565b60208082526025908201527f455243313135353a207472616e7366657220746f20746865207a65726f206164604082015264647265737360d81b606082015260800190565b6020808252602a908201527f455243313135353a20696e73756666696369656e742062616c616e636520666f60408201526939103a3930b739b332b960b11b606082015260800190565b6020808252818101527f4f776e61626c653a2063616c6c6572206973206e6f7420746865206f776e6572604082015260600190565b60208082526053908201527f4d657461646174612069732066726f7a656e20666f726576657220657863657060408201527f7420666f722064796e616d6963204e46547320737570706f72742066726f6d20606082015272185d5d1a1bdc9a5e99590818dbdb9d1c9858dd606a1b608082015260a00190565b60208082526028908201527f455243313135353a2069647320616e6420616d6f756e7473206c656e677468206040820152670dad2e6dac2e8c6d60c31b606082015260800190565b60208082526021908201527f455243313135353a206d696e7420746f20746865207a65726f206164647265736040820152607360f81b606082015260800190565b6020808252600e908201526d139bdd08185d5d1a1bdc9a5e995960921b604082015260600190565b60006001600160401b03821115613ddd57613ddd613f63565b5060051b60200190565b60008219821115613dfa57613dfa613f0b565b500190565b600082613e0e57613e0e613f21565b500490565b6000816000190483118215151615613e2d57613e2d613f0b565b500290565b600082821015613e4457613e44613f0b565b500390565b60005b83811015613e64578181015183820152602001613e4c565b838111156114935750506000910152565b600181811c90821680613e8957607f821691505b60208210811415613eaa57634e487b7160e01b600052602260045260246000fd5b50919050565b601f8201601f191681016001600160401b0381118282101715613ed557613ed5613f63565b6040525050565b6000600019821415613ef057613ef0613f0b565b5060010190565b600082613f0657613f06613f21565b500690565b634e487b7160e01b600052601160045260246000fd5b634e487b7160e01b600052601260045260246000fd5b634e487b7160e01b600052603160045260246000fd5b634e487b7160e01b600052603260045260246000fd5b634e487b7160e01b600052604160045260246000fd5b600060033d1115611eb25760046000803e5060005160e01c90565b600060443d1015613fa25790565b6040516003193d81016004833e81513d6001600160401b038160248401118184111715613fd157505050505090565b8285019150815181811115613fe95750505050505090565b843d87010160208285010111156140035750505050505090565b61401260208286010187613eb0565b509095945050505050565b8015158114611cf157600080fd5b6001600160e01b031981168114611cf157600080fdfea109ba539900bf1b633f956d63c96fc89b814c7287f7aa50a9216d0b55657207a264697066735822122002623f4de4fc86cef9822a3854af3ce491abe79863a470c857773d5cd6ca7c9464736f6c63430008070033",
  "linkReferences": {},
  "deployedLinkReferences": {}
}